:020000040800F2
:10000000600C00206D0100087501000877010008F0
:10001000790100087B0100087D0100080000000054
:100020000000000000000000000000007F01000848
:10003000810100080000000083010008850100081C
:100040008701000887010008870100080000000000
:1000500000000000870100088701000887010008F0
:1000600087010008000000008701000887010008E0
:100070008701000800000000711C000887010008CB
:1000800087010008870100080000000087010008C0
:1000900087010008000000000000000000000000D0
:1000A00000000000000000000000000087010008C0
:1000B0008701000887010008870100088701000800
:1000C00000F002F800F043F80AA090E8000C824427
:1000D0008344AAF10107DA4501D100F038F8AFF204
:1000E000090EBAE80F0013F0010F18BFFB1A43F016
:1000F00001031847DC3C0000FC3C0000103A24BF20
:1001000078C878C1FAD8520724BF30C830C144BF7C
:1001100004680C60704700000023002400250026BE
:10012000103A28BF78C1FBD8520728BF30C148BF5A
:100130000B6070471FB500F089F904000020002112
:1001400002F014FB401C60601FBD10B510BD00F034
:1001500058F91146FFF7EEFF02F0D0F800F088F9E9
:1001600003B4FFF7F2FF03BC00F08CF909488047A5
:1001700009480047FEE7FEE7FEE7FEE7FEE7FEE789
:10018000FEE7FEE7FEE7FEE704480549054A064BA1
:1001900070470000311B0008C10000086006002005
:1001A000600C0020600800206008002070B5064642
:1001B00000F090F80468054630460A22002100F05D
:1001C0008DF82C6070BD40EA0103024630B59B07F4
:1001D00010D14FF0013400E008C208C91D1B9D4337
:1001E00015EAC41FF8D013F0FF0102F8011B0DD06F
:1001F0001B0AF8E711F8013B002B02F8013B05D080
:1002000011F8013B002B02F8013BF3D130BD10B5D2
:10021000431C02E010F8011B71B18107FAD14FF0C5
:10022000013202C88C1A8C4314EAC211F9D0C01AE8
:100230000A0603D0C01E10BDC01A10BD0A0401D0AA
:10024000801E10BD0902FCD0401E10BD4FF0013CC5
:1002500050F8042B51F8043B9A4221D1A2EB0C0335
:10026000934313EACC1317D150F8042B51F8043BF5
:100270009A4215D1A2EB0C03934313EACC130BD192
:1002800050F8042B51F8043B9A4209D1A2EB0C031D
:10029000934313EACC13DBD04FF00000704700BF4C
:1002A000D01A01BAB1FA81F101F0180122FA01F075
:1002B000CB40C1F12001DBB2C0B2C01A2CFA01F36D
:1002C000D11A914311EAC311E6D1704770477047C4
:1002D0007047000000487047FC0500202DE9F047FA
:1002E00091460F4680460446002614F8015B2DB166
:1002F00000F030F80068405DC007F6D12B2D02D029
:100300002D2D18D0641E4A463946204600F02AF8A2
:1003100027B13968A14201D1C7F800804FF002042B
:1003200071050BD54042002803DDFFF7D3FF0460C1
:10033000A007BDE8F08746F48066E4E70028F8DA15
:10034000FFF7C8FF04606FF00040F2E70048704715
:10035000FC05002010B500F079F8001D10BD00BFAD
:100360000D2400002DE9F05F824615468B460027DC
:100370000AF10104B9460078302801D09DB113E09C
:1003800014F8010B0127782803D0582801D045B173
:100390000AE00DB1102D07D1002714F8010B10252C
:1003A00002E0082500E00A250026B0460EE005FB25
:1003B000080005FB06F101271FFA80F801EB104643
:1003C000B6F5803F00D3B94614F8010B294600F07A
:1003D00041F80028EBDABBF1000F05D00FB1641E25
:1003E00000E05446CBF80040B9F1000F06D0FFF70B
:1003F00071FF02210160C81EBDE8F09F48EA064077
:10040000FAE77546FFF7A2FFAE4605006946534678
:1004100020F00700854618B020B5FFF7B5FEBDE80F
:1004200020404FF000064FF000074FF000084FF05B
:10043000000B21F00701AC46ACE8C009ACE8C009EC
:10044000ACE8C009ACE8C0098D4670470048704769
:100450001C0600203A2800D2303820F02002412A21
:1004600001D3A2F13700884201D34FF0FF3070472B
:1004700010B50446AFF300802046BDE81040FFF7FA
:100480006FBE000001491820ABBEFEE72600020047
:100490007047000046F249000149086070470000BB
:1004A0000080084000200C49096841F002010A4A16
:1004B000116000BF0849096A09B9012100E0002163
:1004C00001F001010029F5D1034A11621146886942
:1004D000C0F30B0070470000008008400020034973
:1004E0000968C1F3401181F00100704700800A40A3
:1004F00038B50446002000906B46042203213820C2
:1005000000F072FE9DF800004FF4706101EA0020D7
:10051000208020889DF80110084320809DF802006B
:100520004FF4706101EA0020608060889DF803103C
:1005300008436080608840F23F11081A608038BD2F
:1005400010B500F021F800F04FF8002211463820D5
:1005500000F0B4FE80221146382000F0AFFE802269
:100560008521382000F0AAFE00228621382000F0E4
:10057000A5FE0E228821382000F0A0FE0022A42132
:10058000382000F09BFE10BD1548406840F0020086
:10059000134948600846C06840F00200C860084639
:1005A000806820F00C0088600846806940F00C00EC
:1005B00088610C48406840F020000A4948600846BD
:1005C000C06840F02000C8600846806820F44060A1
:1005D00088600846806940F4406088617047000088
:1005E00000800C4000800A4010B51548006820F0DB
:1005F0000200134908600521124801F05DFC104813
:10060000006840F002000E4908604FF4AF710D48D9
:1006100001F052FC0C48006820F020000A490860F4
:100620000121084801F048FC0748006840F020001C
:10063000054908600846406820F02000486010BD69
:1006400000800C400080074000800A4003200149E0
:10065000088070470800002000200149087070479A
:100660000000002010B50748FFF7A0FD06490880EC
:100670000846008801F09CFB0449088001200449D9
:10068000088010BD0000002006000020140000209B
:100690000800002070B50546074C00262046FFF7ED
:1006A000B6FDC0B20646042805DA3046711CCEB24B
:1006B00025540020A05570BD0000002010B530204A
:1006C000FFF7E8FF10BD10B53120FFF7E3FF10BDC5
:1006D00010B53220FFF7DEFF10BD10B53320FFF755
:1006E000D9FF10BD10B53420FFF7D4FF10BD10B5F1
:1006F0003520FFF7CFFF10BD10B53620FFF7CAFF3A
:1007000010BD10B53720FFF7C5FF10BD10B538205C
:10071000FFF7C0FF10BD10B53920FFF7BBFF10BDBC
:1007200010B508490848FFF791FD50B1074B4FF647
:10073000FF720449002000F069FC02490248FFF7FB
:1007400042FD10BD000000200A000020BC3D000852
:1007500000B58BB04BF6D75000F041FE0020B949F0
:10076000087000F0F1FCB84800F0E8FC002003211C
:100770000A22B64BCDE90532CDE907104FF6FF70DE
:10078000B3A100220192CDE902210490022040F29F
:100790000D13EF22A9210090452000F029FBAD4860
:1007A000642100220A23CDE90732CDE90910142083
:1007B000A649A9A3CDE90332CDE90510104647F2B9
:1007C00069510422DB23CDE900210290A922632193
:1007D000312000F003FAA148642100220A23CDE968
:1007E0000732CDE90910142098499DA3CDE90332C1
:1007F000CDE90510104647F269510422DB23CDE90B
:1008000000210290A9229521632000F0E7F9954884
:10081000642100220A23CDE90732CDE90910142012
:100820008A4991A3CDE90332CDE90510104647F27C
:1008300069510422DB23CDE900210290A922C721BE
:10084000952000F0CBF98948642100220A23CDE9E4
:100850000732CDE9091014207C4985A3CDE9033284
:10086000CDE90510104647F269510422A923CDE9CC
:100870000021029077226321312000F0AFF97D48FA
:10088000642100220A23CDE90732CDE909101420A2
:100890006E4979A3CDE90332CDE90510104647F240
:1008A00069510422A923CDE90021029077229521E4
:1008B000632000F093F97148642100220A23CDE9F6
:1008C0000732CDE90910142060496DA3CDE9033248
:1008D000CDE90510104647F269510422A923CDE95C
:1008E000002102907722C721952000F077F9654812
:1008F000642100220A23CDE90732CDE90910142032
:10090000524961A3CDE90332CDE90510104647F203
:10091000695104227723CDE9002102904522632109
:10092000312000F05BF95948642100220A23CDE907
:100930000732CDE909101420444955A3CDE903320B
:10094000CDE90510104647F2695104227723CDE91D
:100950000021029045229521632000F03FF94D4887
:10096000642100220A23CDE90732CDE909101420C1
:10097000364949A3CDE90332CDE90510104647F2C7
:10098000695104227723CDE9002102904522C72135
:10099000952000F023F94148642100220A23CDE983
:1009A0000732CDE909101420284929A3CDE90332E3
:1009B000CDE90510104647F2695104224523CDE9DF
:1009C0000021029013229521632000F007F934489A
:1009D000642100220A23CDE90732CDE90910142051
:1009E0001A4930A3CDE90332CDE90510104647F28C
:1009F000695104224523CDE900210290132263218D
:100A0000312000F0EBF82848642100220A23CDE9C8
:100A10000732CDE9091014200C4924A3CDE9033293
:100A2000CDE90510104647F2695104224523CDE96E
:100A3000002102901322C721952000F0CFF80BB0BF
:100A400000BD00000000002021070008BC3D000898
:100A500030000000C706000831000000D106000881
:100A600032000000DB06000833000000E506000845
:100A700034000000EF06000835000000F906000809
:100A80003600000003070008370000000D070008CB
:100A9000380000001707000839000000BD060008F4
:100AA000590600082E000000650600083A00000004
:100AB00010B500F093FA00F035FB474800780028A5
:100AC0007ED0002482E04448418804EB440000EBDF
:100AD000C40241485C3030F8220081420CDB3E48C1
:100AE000418804EB440000EBC4023B485C3000EB5F
:100AF00082004088814200DD66E03748818804EB4F
:100B0000440000EBC40234485C3000EB8200808873
:100B100081420CDB3048818804EB440000EBC402C6
:100B20002D485C3000EB8200C088814200DD4BE044
:100B300004EB440000EBC40127485C3000EB81006B
:100B400090F82400D0BB04EB440000EBC401224821
:100B50005C3000EB8100806A48B104EB440101EB9A
:100B6000C4021D495C3101EB8201886A804704EBB5
:100B7000440000EBC40118485C3000EB8100008C9D
:100B8000E0B1012104EB440000EBC40212485C30E8
:100B900000EB820080F8241004EB440000EBC40159
:100BA0000D485C3000EB8100018C04EB440000EB4D
:100BB000C40209485C3000EB8200C184002000E0E0
:100BC00007E00549087010BD601CC4B20D2CFFF68B
:100BD0007AAF00BFF7E70000600300202DE9FE4F69
:100BE00004460F4615469846DDF848B0DDE90C9AF4
:100BF0000F9E7E48407A00EB400101EBC0017B482C
:100C00005C3020F821405C38407A00EB400101EB79
:100C1000C00176485C3000EB810047807348407A21
:100C200000EB400101EBC00170485C3000EB81003B
:100C300085806E48407A00EB400101EBC0016B48B3
:100C40005C3000EB8100A0F806806848407A00EB39
:100C5000400101EBC00165485C3000EB8100A0F869
:100C600008906248407A00EB400101EBC0015F4808
:100C70005C3000EB8100A0F80AA05C48407A00EBF1
:100C8000400202EBC00259485C3000EB82000E9932
:100C900081815648407A00EB400101EBC001534886
:100CA0005C3000EB810006615048407A00EB400266
:100CB00002EBC0024D485C3000EB820010990183CA
:100CC0004A48407A00EB400202EBC00247485C30E1
:100CD00000EB8200119941614448407A00EB4001E9
:100CE00001EBC00141485C3000EB8100A0F81AB074
:100CF0003E48407A00EB400202EBC0023B485C30C9
:100D000000EB8200139981833848407A00EB40025F
:100D100002EBC00235485C3000EB82001499817709
:100D20003248407A00EB400202EBC0022F485C30B0
:100D300000EB82001599018400212C48407A00EBD9
:100D4000400202EBC00229485C3000EB820080F8D0
:100D500024102648407A00EB400202EBC0022348F0
:100D60005C3000EB8200C1842048407A00EB4002F6
:100D700002EBC0021D485C3000EB820016998162D4
:100D80000E9843462A463946CDE9009A02902046FD
:100D900000F0EAF8B6B111980090139AA91804EB84
:100DA0000B003246109B00F003FD01460F48407ACD
:100DB00000EB400202EBC0020C485C3000EB82000A
:100DC00041840BE000210948407A00EB400202EB2D
:100DD000C00206485C3000EB820041840348407A40
:100DE000401CC1B201484172BDE8FE8F6003002083
:100DF0002DE9FE4F04460F4615469846DDF848B0EB
:100E0000DDE90C9A0F9E5748007A00EB80015548A7
:100E10000C3020F831400C38007A00EB800151484A
:100E20000C3000EBC10047804E48007A00EB800197
:100E30004C480C3000EBC10085804A48007A00EB3A
:100E4000800148480C3000EBC100A0F806804548FE
:100E5000007A00EB800143480C3000EBC100A0F8A1
:100E600008904048007A00EB80013E480C3000EBCF
:100E7000C100A0F80AA03B48007A00EB8002394884
:100E80000C3000EBC2000E9981813648007A00EBED
:100E9000800134480C3000EBC10006613148007A13
:100EA00000EB80022F480C3000EBC2001099018348
:100EB0002C48007A00EB80022A480C3000EBC2007C
:100EC000119941612748007A00EB800125480C30D8
:100ED00000EBC100A0F81AB02248007A00EB8002B3
:100EE00020480C3000EBC200139981831D48007A22
:100EF00000EB80021B480C3000EBC2001499016229
:100F00000E9843462A463946CDE9009A029020467B
:100F100000F02AF8A6B111980090139AA91804EBD2
:100F20000B003246109B00F043FC01460D48007A4E
:100F300000EB80020B480C3000EBC200818409E01A
:100F400000210848007A00EB800206480C3000EBD4
:100F5000C20081840348007A401C02490872BDE83F
:100F6000FE8F0000600300202DE9F84F06460F4673
:100F700090469946DDE90BA50A9C4B464246394608
:100F80003046CDF800A000F0CFF9002C24DD601E23
:100F9000304481B24B4642463046009500F0C4F9D9
:100FA000601EA9EB000082B24B46394630460095E0
:100FB00000F0BAF9611E791A88B24B4642463946AA
:100FC000009500F0B1F9601E404483B242463946B4
:100FD0003046009500F0A8F9BDE8F88F10B5FFF78E
:100FE0007DFA084908700846007850B10648FFF7B6
:100FF0007FFA054800880349488003484188014832
:10100000818010BD60030020160000202DE9FE4302
:1010100004460D4616461F4604EB8401404800EB8B
:10102000C100056104EB84013D4800EBC10006836B
:1010300004EB84013A4800EBC1004761002104EB56
:101040008402374800EBC2004089CDE9001004EB70
:101050008408DFF8CCC00CEBC80C0291BCF804800B
:1010600004EB8409DFF8B8C00CEBC90CBCF81CC059
:10107000C4440CF1180C1FFA8CF304EB8408DFF85D
:10108000A0C00CEBC80CBCF8048004EB8409DFF8AA
:1010900090C00CEBC90CBCF81CC0C4441FFA8CF205
:1010A00004EB8408DFF878C03CF8388004EB84094E
:1010B0000CEBC90CBCF81AC0C4441FFA8CF004EB4A
:1010C0008408DFF85CC00CEBC80CBCF82410FFF7F8
:1010D0004BFF1DB304EB8403114A02EBC3020097DC
:1010E000938804EB840C0E4A02EBCC02928B991885
:1010F00004EB84030A4A32F8333004EB840C02EB2D
:10110000CC02528B981833462A4600F051FB014618
:1011100004EB8402024800EBC2008184BDE8FE8338
:101120006C03002010B50448D0F8980218B10249A9
:10113000D1F89802804710BD600300200149C1F832
:1011400098027047600300200020034908720021C4
:1011500001484172817270476003002000B500F0C1
:101160000DF800F09FF89F200349086000204860B8
:101170008020886000BD00000000054019484068DC
:1011800020F00300174948600846806820F00F00EF
:1011900088600846806840F00A0088600846C06899
:1011A00040F00300C8600846006920F003000861B1
:1011B0000846006920F4403008610846406920F084
:1011C000030048610846406920F440304861084601
:1011D000806940F00F0088610846C06900F0030094
:1011E000C861704700800B4070B50C4600BF2C49A9
:1011F000096901F040010029F9D19021284DA96128
:10120000410069611021A96100BF2549096901F008
:1012100002010029F9D122494C611021204DA96118
:1012200000BF1F49096901F002010029F9D190218D
:101230001B4DA961012101EB400169611021A961E8
:1012400000BF1749096901F002010029F9D100BF67
:101250000EE02025124EB56100BF114D2D6905F03D
:101260000205002DF9D10E4DED685D544D1CE9B21B
:10127000551E8D42EDDC2821094DA96100BF0849AA
:10128000096901F002010029F9D10549C968CDB207
:10129000511E5D544021024DA9610021A96170BD1C
:1012A0000000054000200449086048608860C8606C
:1012B00008614861886170470000054010B500BFB3
:1012C000184B1B6903F04003002BF9D19023154CF8
:1012D000A361430063611023A36100BF114B1B692D
:1012E00003F00203002BF9D10E4B596110230D4C72
:1012F000A36100BF0B4B1B6903F00203002BF9D164
:10130000084B5A611023074CA36100BF054B1B69B2
:1013100003F00203002BF9D14023024CA361002308
:10132000A36110BD000005402DE9FC5F06460F4695
:1013300014469846DDF83090019440F23F10A0EB3F
:10134000080084B240F23F110198081A1FFA80F891
:1013500000254FF0000A0096A34600BF21E00BEBEA
:101360000500401C83B20BEB050081B23A460098A1
:1013700000F074FA2C2000F03DFA4FF0000A0BE068
:101380004FEA292000F050FA09F0FF0000F04CFA73
:101390000AF101001FFA80FAB81B5045F0DA681C08
:1013A00085B2A8EB0400A842D9DABDE8FC9F70B56D
:1013B00006460C46154640F23F10001B84B22346F9
:1013C00032462146304600F049FA2C2000F012FA4D
:1013D000281200F029FAE8B200F026FA70BD2DE9D3
:1013E000F04104462612E7B240F23F13EF220021FB
:1013F000084600F033FA2C2000F0FCF9002506E046
:10140000B0B200F011FAB8B200F00EFA6D1CB5F5EA
:10141000963FF5D3BDE8F08110B59948006840F0DB
:101420000800974908608021964800F04BFA012097
:1014300000F0E0F96421944800F03EFDCB2000F07C
:10144000D9F9392000F0F0F92C2000F0EDF9002056
:1014500000F0EAF9342000F0E7F9022000F0E4F9A6
:10146000CF2000F0C7F9002000F0DEF9C12000F025
:10147000DBF9302000F0D8F9E82000F0BBF9852036
:1014800000F0D2F9002000F0CFF9782000F0CCF97C
:10149000EA2000F0AFF9002000F0C6F9002000F0CB
:1014A000C3F9ED2000F0A6F9642000F0BDF9032097
:1014B00000F0BAF9122000F0B7F9812000F0B4F979
:1014C000F72000F097F9202000F0AEF9C02000F0DE
:1014D00091F9232000F0A8F9C12000F08BF9102029
:1014E00000F0A2F9C52000F085F93E2000F09CF93B
:1014F000282000F099F9C72000F07CF9862000F040
:1015000093F9362000F076F9482000F08DF93A2062
:1015100000F070F9552000F087F9B12000F06AF969
:10152000002000F081F9182000F07EF9B62000F0CC
:1015300061F9082000F078F9822000F075F9272081
:1015400000F072F9F22000F055F9002000F06CF97B
:101550002A2000F04FF9002000F066F9002000F08A
:1015600063F9002000F060F9EF2000F05DF92B2016
:1015700000F040F9002000F057F9002000F054F985
:10158000012000F051F93F2000F04EF9262000F034
:1015900031F9012000F048F9E02000F02BF90F208C
:1015A00000F042F9312000F03FF92B2000F03CF927
:1015B0000C2000F039F90E2000F036F9082000F078
:1015C00033F94E2000F030F9F12000F02DF93720EA
:1015D00000F02AF9072000F027F9102000F024F984
:1015E000032000F021F90E2000F01EF9092000F080
:1015F0001BF9002000F018F9E12000F0FBF80020B2
:1016000000F012F90E2000F00FF9142000F00CF990
:10161000032000F009F9112000F006F9072000F07E
:1016200003F9312000F000F9C12000F0FDF8482056
:1016300000F0FAF8082000F0F7F80F2000F0F4F8B6
:101640000C2000F0F1F8312000F0EEF8362000F028
:10165000EBF80F2000F0E8F8112000F0CBF864213F
:10166000094800F029FC292000F0C4F82C2000F0E3
:10167000C1F80648006840F080000449086010BDC9
:1016800000000C4000800C400080074000800A40B1
:101690002DE9FF4F85B007461546129C00200490A7
:1016A00003900290824601902088A8427EDC6088E8
:1016B000A8427BDB002676E0A06830F83600A8421E
:1016C0006FDCA06800EBC6004088A84269DBA06818
:1016D00030F836A0A06800EBC6004068A5EB0A0110
:1016E00001EB410130F811000390A06800EBC60047
:1016F0004068A5EB0A0101EB410100EB4100408885
:1017000002904FF0000B43E000200490029800F09C
:10171000FF0835E0A06800EBC6004068A5EB0A01B1
:1017200001EB410100EB4100808800EB0B02DDE999
:10173000031000FB01202169085C01904FF00009B3
:1017400013E0012000FA09F00199084048B1069A17
:1017500002EBC802A2EB090291B2B8B2089AFFF7F5
:1017600026FE09F1010000F0FF09B9F1080FE8DBDE
:101770000498401CC0B20490A8F1010000F0FF08DA
:10178000B8F1000FC6DC7F1C0BF1010000F0FF0B6D
:1017900003988345B8DBB8B209B0BDE8F08F05E027
:1017A000FFE7701C86B2A089B04285DCB8B2F3E7CF
:1017B0002DE9F84305460F4614469846DDF820907B
:1017C000002611E014F8016B202E00D1AD1D434618
:1017D000324639462846CDF80090FFF759FF0546B6
:1017E00014B1202E00D06D1C20780028EAD1A8B2B8
:1017F000BDE8F88310B504464021094800F054F8CC
:101800000848006820F0080006490860204600F0FB
:1018100033F90448006840F008000249086010BD30
:1018200000800A4000000C4010B5044640210948E1
:1018300000F048F80848006820F0080006490860F1
:10184000204600F019F90448006840F008000249F9
:10185000086010BD00800A4000000C402DE9F041F6
:1018600004460D4616461F462A20FFF7C3FF2012E6
:10187000FFF7DAFFE0B2FFF7D7FF3012FFF7D4FF30
:10188000F0B2FFF7D1FF2B20FFF7B4FF2812FFF7CC
:10189000CBFFE8B2FFF7C8FF3812FFF7C5FFF8B279
:1018A000FFF7C2FFBDE8F0810268054B984201D105
:1018B0001F2300E000230B439A430260704700009F
:1018C00000000C400268054B984201D11F2300E044
:1018D00000239A430A4302607047000000000C4056
:1018E00001490860704700008800404210B5024678
:1018F0000C4BD86820F003001043D860586820F4DF
:10190000706040EA01205860074B1B6843B1012317
:10191000054C241D23600023034C883CC4F88C3004
:1019200010BD0000000002408800404238B5002091
:10193000009000BF212000F02FF805460098401CC1
:1019400000900098B0F5C06F01D2002DF2D0212098
:1019500000F022F808B1012400E00024204638BD40
:101960000149086070470000880140420146044A6E
:10197000D06820F0F00040EA0110D060704700000D
:10198000000002400146034AD06820F4407008433A
:10199000D06070470000024010B5014601F0E0033E
:1019A000202B02D1074B1A6801E0074BDA6B01F0DC
:1019B0001F040123A34013400BB1012000E00020CD
:1019C00010BD00000000024000800D400D498968F4
:1019D00021F003010B4A9160012802D002280ED1A8
:1019E00006E00849896841F00101064A916007E074
:1019F0000449896841F00301024A916000E000BF98
:101A000000BF70470000024038B50020009000BFC2
:101A10002220FFF7C1FF05460098401C0090009867
:101A2000B0F5C06F01D2002DF2D02220FFF7B4FF35
:101A300008B1012400E00024204638BD00B5074865
:101A4000C06A40F000700549C86200F00BF807203A
:101A50000349086002204860086100BD00000240A0
:101A600000000A400020034908604860086148619E
:101A70004862704700000A400849886000BF074973
:101A8000C96801F010010029F9D100BF0349C968F4
:101A900001F001010029F9D07047000000000A4060
:101AA00030B5204CE46804F00204022C01D11E4839
:101AB00000E01D481B4CE46804F0010404B1400838
:101AC0000146184CE46804F00404042C05D1154CBC
:101AD0006468C4F30324631C5943124CE468C4F3E0
:101AE000012424B1012C06D0022C13D10DE00E4CA0
:101AF0000E4D2C6013E00B4CE468C4F30314641C1B
:101B0000B1FBF4F2094C226009E04FF40044074DA8
:101B10002C6004E049F64044044D2C6000BF00BF37
:101B200030BD00000000024000127A001C000020BE
:101B300000B50D480D49C8610846C0680020C8605E
:101B40000846406800204860084680680020886099
:101B50000846006900200861084640690020486185
:101B6000FFF79EFF00BD00001000000800000240CB
:101B70000246104B586A104B9A4205D120F0FF00E4
:101B8000084340F0807012E00C4B9A4206D120F4DA
:101B90007F4040EA012040F0007008E0084B9A4284
:101BA00005D120F47F0040EA014040F08060014B05
:101BB0005862704700000240000007400080074064
:101BC000000008400A46C16812B141F0010101E07D
:101BD00021F00101C160704730B50C8804604C8869
:101BE00044608C888460CC880D892C444D892C44B9
:101BF0008D892C44CD896319C3604C8A0D8A04EB0E
:101C000005148D8A2C44CD8A6219026530BD0021ED
:101C1000018041808180C180018141818181C181B8
:101C2000018241828182C18270470021C1600160CE
:101C300041608160016241628162C162016341630E
:101C40008163C163016641668166C166016141616C
:101C50008161C161016741678167C1670164416456
:101C60008164C164016541658165C165704700009B
:101C7000002028E000EB400101EBC0021B4901EB12
:101C80008201C98C002912DD00EB400101EBC0028A
:101C9000164901EB8201C98C491E8AB200EB400152
:101CA00001EBC003114901EB8301CA8409E0002262
:101CB00000EB400101EBC0030C4901EB830181F80B
:101CC0002420411CC8B20D28D4DB0020084908603C
:101CD00048650E20002807DB00F01F02012191401B
:101CE000044A430942F8231000BF7047BC03002098
:101CF0000000074080E200E010B51348FFF795FFB1
:101D000003211148FFF734FF01200F49C86042F258
:101D10000F704860012088600020086002208865FC
:101D20000E2000280DDB00BF00BF00F01F020121C4
:101D300091404209920002F1E022C2F8001100BF76
:101D400000BF00BF62B610BD0000074000B587B0FD
:101D50001548FFF76AFF03211348FFF709FF01A8A1
:101D6000FFF755FF42F20F70ADF806004FF6FF7017
:101D7000ADF8080001A90C48FFF72EFF0F2000283E
:101D80000BDB00F01F0201219140084A430942F891
:101D90002310BFF34F8FBFF36F8F00BF01210248A5
:101DA000FFF710FF07B000BD0080074080E100E0B2
:101DB00010B501464FF49C730022002003E0D418B4
:101DC000A2B2441CA0B28A42F9DB002801DD441E05
:101DD000A0B210BD70B505460E4600241CE055F8B3
:101DE0003400404305EBC401496805EBC402526866
:101DF00001FB020045F8340055F83400002806DBEA
:101E000055F8340000F09CFC45F8340002E0002056
:101E100045F83400601CC4B20120B040A042DEDCB2
:101E200070BD000010B501241A48006840F0180089
:101E3000184908600120FFF7C9FDFFF7E5FD0128FB
:101E40001BD107210220FFF751FD0120FFF748FDBC
:101E500000BFFFF76BFD0128FBD1FFF767FD0128ED
:101E60000BD1FFF77DFD0020FFF780FD4FF4807060
:101E7000FFF788FDFFF714FE00240748806B40F051
:101E80000700054988630846806B40F03800886386
:101E9000204610BD0080014000800D404FF0FF3013
:101EA0000149C861704700000000024010B5FFF70B
:101EB000B9FFFFF7F3FF10BD08B50022009242F210
:101EC0000F72426000220260026892B2009200BF6C
:101ED0000268BDF80030D21A92B28A42F8DB08BD1F
:101EE00008B50022009209224260002202600268C6
:101EF00092B2009200BF0268BDF80030D21A92B2CE
:101F00008A42F8DB08BD2DE9F04F04460E469046A4
:101F1000701E012101FA00F700254FF000094FF073
:101F2000000A002004E054F830100D44411CC8B2EF
:101F3000B842F8DB0120B04095FBF0F5002009E045
:101F400054F83010491B54F83020521B01FB029901
:101F5000411CC8B2B842F3DB99FBF7FB584600F0CE
:101F6000EFFB824654F838000AEB4A01884202DB54
:101F70000120BDE8F08F0020FBE700002DE9F04FC5
:101F800089B00C4600270121A1401FFA81F9A9F16F
:101F9000010189B2069101261BE04C4600BF641086
:101FA00007EB040A06998A45F9DC611E3940214491
:101FB0008FB2B74200DC0AE030F836100FFA81FC2D
:101FC00050F8371040F8361040F837C000BF711C89
:101FD0008EB206998E42E0DB012509210891C4E00A
:101FE0004FF6FF7B0BEA450BCDF81CB04FF0000815
:101FF000AEE0DDF820B008FA0BFB1FFA8BFBCDF842
:1020000014B0DFF874E1DDF814B00BF5807B3EF915
:102010001BB0CDF810B0DDF814B03EF81BB0CBF11A
:10202000000B0FFA8BFBCDF80CB0DDF810B04FEAC7
:102030006B0BCDF810B0DDF80CB04FEA6B0BCDF8A0
:102040000CB042467DE002EB050B1FFA8BF350F813
:1020500033B0DDF810E00BFB0EF1891301F0010A3B
:102060000AEB610B0FFA8BFC00EBC30BDBF804B03F
:10207000DDF80CE00BFB0EF1891301F0010A0AEB0D
:10208000610BACEB0B0B0FFA8BFC00EBC30BDBF81B
:1020900004B0DDF810E00BFB0EF1891301F0010A2A
:1020A0000AEB610B0FFA8BFBCDF800B050F833B0A0
:1020B000DDF80CE00BFB0EF1891301F0010A0AEBCD
:1020C000610EDDF800B0F3440FFA8BFBCDF800B0E1
:1020D00030F832B00FFA8BFBCDF808B000EBC20B32
:1020E000BBF804B00FFA8BFBCDF804B0DDF808B0F4
:1020F0004FEA6B0BCDF808B0DDF804B04FEA6B0B7C
:10210000CDF804B0DDF808B0E34440F832B0DDE9C2
:1021100000EBF34400EBC20ECEF804B0DDF808B0DB
:10212000ABEB0C0B40F833B0DDE900EBABEB0E0B87
:1021300000EBC30ECEF804B0DDF81CB093441FFAD8
:102140008BF24A45FFF67FAF08F1010B1FFA8BF8BF
:10215000A845FFF64EAFDDF820B0ABF1010B1FFA3A
:102160008BFBCDF820B0079D00BF4D45FFF638AF83
:1021700009B0BDE8F08F000098270008F8B50546C3
:102180003F4A06213F4800F087F806213D48FFF707
:10219000F5FE06213B48FFF71DFE2A460621394879
:1021A000FFF7B1FE38490870002462E03648007835
:1021B000012806D1AC4204D14FF47840334908805D
:1021C00002E00020314908802E4850F83400B92838
:1021D00003DDB9202B4941F834002D4830F91400B3
:1021E000284951F83410884217DA284800880090AE
:1021F00004EB84004FF4A076A6EB4000401E83B2AF
:1022000004EB8400A6EB40000A3882B21D4830F887
:10221000340081B20020FFF787F81D4830F9140020
:10222000184951F8341088421ADD4FF6FF7004EB5C
:1022300084064FF4A077A7EB4606761EB3B204EBF4
:102240008406A7EB46060A3EB2B2114E009036F85D
:102250001460B1B20B4E36F83460B0B2FFF764F8D8
:10226000084830F8340000B2094921F81400601C15
:10227000C4B2202C9ADB32210648FFF71DFEF8BDC0
:10228000A5040008600100201000002012000020BA
:1022900020010020008007402DE9F04705460E464A
:1022A00017464FF0000800241FE04FF0000907E038
:1022B000B84740441FFA80F809F1010000F0FF0917
:1022C000B9F1020FF4DB40F2E470C0EB680080105B
:1022D00045F83400002005EBC40148608046142115
:1022E0000548FFF7FDFD601C84B20120B040A0420C
:1022F000DBDCBDE8F0870000008007408CB0FFF712
:10230000D5FDFFF723FDFFF7F7FC00F0E1F9FEF73D
:10231000C1F8FFF793FBFEF721FFFFF77DF84FF6BB
:10232000FF70FFF75CF8FEF70BF9002041490880C9
:102330000320414908807CE03F480088012806D0FE
:1023400002285FD0032864D0042871D169E04FF6D9
:10235000FF70FFF744F8FEF7F7FE0020FEF7EEFEF1
:102360003648642100220792CDE908210A903449B9
:102370000392CDE90421104647F2695106920422E6
:1023800040F23513CDE90021029040F21712E52109
:10239000C720FEF723FC00200322294BCDE90620AD
:1023A000059308904FF6FF7026A100220192CDE917
:1023B0000221049001204FF48973F922EC2100904E
:1023C000BA20FEF715FD1E4B4FF6FF721E49002086
:1023D000FEF71CFE00201D49C8600E2000280BDB04
:1023E00000F01F0201219140194A430942F82310CD
:1023F000BFF34F8FBFF36F8F00BF72B602200E493D
:10240000088015E013480088FFF7B8FEFEF750FB80
:102410000EE0FFF771FCFEF79BF9042006490880E7
:1024200006E0FEF745FB0A210B48FFF745FD00BF1C
:1024300000BF81E706000020080000204D060008CC
:10244000BC3D0008300000000000002000000740F4
:1024500080E100E0140000200080074010B5002259
:102460001021044800F05EF800221021014800F01D
:102470004FF810BD00000C4070B50B460021012440
:1024800005E04D1CE9B24FF6FF7505EA44049C4295
:10249000F7DB84684E000325B540AC43846032B15D
:1024A000012A0BD0022A10D0032A1CD114E0846820
:1024B0004E000025B5402C43846014E084684E0033
:1024C0000125B5402C4384600DE084684E00022550
:1024D000B5402C43846006E084684E000325B54077
:1024E0002C43846000BF00BF70BD000010B54021C8
:1024F000054800F0F5F88021034800F0F1F880214C
:10250000024800F0EDF810BD00800A4000800C4049
:10251000012A03D1C3680B43C36002E0C3688B4345
:10252000C3607047012A03D143680B43436002E054
:1025300043688B4343607047012A03D143690B43CF
:10254000436102E043698B4343617047012A04D130
:10255000436943EA0143436103E0436923EA0143DA
:1025600043617047012A03D103690B43036102E011
:1025700003698B4303617047012A04D1036943EA6D
:102580000143036103E0036923EA014303617047E8
:1025900070B50B460021012405E04D1CE9B24FF651
:1025A000FF7505EA44049C42F7DB84694E0003256D
:1025B000B540AC43846132B1012A0BD0022A10D05D
:1025C000032A1CD114E084694E000025B5402C4339
:1025D000846114E084694E000125B5402C43846178
:1025E0000DE084694E000225B5402C43846106E06D
:1025F00084694E000325B5402C43846100BF00BFB1
:1026000070BD000010B5022204213048FFF734FFEE
:10261000002204212D48FFF785FF012204212B48C9
:10262000FFF776FF002204212848FFF78FFF0022E2
:1026300004212648FFF780FF032204212348FFF7E7
:10264000A7FF022240212148FFF716FF0122402167
:102650001E48FFF767FF012240211C48FFF758FF83
:10266000002240211948FFF771FF0022402117483E
:10267000FFF762FF032240211448FFF789FF02227F
:1026800020211248FFF7F8FE012220210F48FFF712
:1026900049FF012220210D48FFF73AFF00222021A7
:1026A0000A48FFF753FF002220210848FFF744FFA4
:1026B000032220210548FFF76BFF0821034800F0A3
:1026C0000FF808210148FFF7FDF810BD00000C408D
:1026D00010B5FFF70BFFFFF795FFFFF7BFFE10BD2B
:1026E00070B504460D46012229462046FFF71AFF21
:1026F000012229462046FFF70BFF002229462046EB
:10270000FFF7BAFE002229462046FFF71FFF0022EE
:1027100029462046FFF710FF022229462046FFF7F0
:1027200037FF002229462046FFF726FF00222946D0
:102730002046FFF717FF29462046FFF7B5F870BD82
:1027400002464FF08041002000E089109142FCD801
:1027500008E04318934203D8131A5A1A00EB4100B9
:10276000401089100029F4D17047000010B50029ED
:102770000AD00878002807D005487844FDF766FDA0
:10278000002801D0002010BD0248784410BD000090
:10279000761600006E1600000000C90092015B0270
:1027A0002403ED03B6047E0547061007D907A108E8
:1027B0006A09320AFB0AC30B8B0C530D1B0EE30E86
:1027C000AB0F721039110012C7128E1355141B155E
:1027D000E115A7166D173318F818BD19821A461B94
:1027E0000B1CCF1C931D561E191FDC1F9F2061213F
:1027F0002322E422A62367242725E725A726672787
:102800002628E528A329612A1E2BDB2B982C542D82
:10281000102ECC2E862F4130FB30B4316D32263352
:10282000DE3396344D350336B9366F372438D83811
:102830008C393F3AF23AA43B563C073DB73D673EE0
:10284000163FC53F73402041CD4179422543D043D7
:102850007A442345CC4574461C47C34769480E4912
:10286000B349574AFA4A9D4B3F4CE04C804D204EAD
:10287000BF4E5D4FFA4F97503351CE5168520153BE
:102880009A533254C9545F55F45589561D57B05761
:102890004258D3586359F359815A0F5B9C5B285CAB
:1028A000B35C3D5DC65D4F5ED65E5D5FE25F6760B7
:1028B000EB606E61F0617162F1627063EE636B6494
:1028C000E7646265DD655666CE664567BC6731685C
:1028D000A56819698B69FC696C6ADB6A4A6BB76B1E
:1028E000236C8E6CF86C616DC96D306E956EFA6EEE
:1028F0005E6FC06F22708270E17040719D71F971DE
:102900005472AE7206735E73B5730A745E74B174FA
:1029100003755475A475F37540768D76D876227755
:102920006B77B377F9773F788378C67808794979F8
:102930008979C779047A417A7C7AB57AEE7A257BEF
:102940005C7B917BC47BF77B297C597C887CB67C43
:10295000E27C0E7D387D617D897DB07DD57DF97D00
:102960001C7E3E7E5E7E7E7E9C7EB97ED47EEF7E29
:10297000087F207F377F4C7F617F747F867F967FC3
:10298000A67FB47FC17FCD7FD77FE07FE87FEF7FD9
:10299000F57FF97FFC7FFE7FFF7FFE7FFC7FF97F65
:1029A000F57FEF7FE87FE07FD77FCD7FC17FB47F6A
:1029B000A67F967F867F747F617F4C7F377F207FE5
:1029C000087FEF7ED47EB97E9C7E7E7E5E7E3E7EDC
:1029D0001C7EF97DD57DB07D897D617D387D0E7D44
:1029E000E27CB67C887C597C297CF77BC47B917B1C
:1029F0005C7B257BEE7AB57A7C7A417A047AC7795A
:102A0000897949790879C67883783F78F977B377F7
:102A10006B772277D8768D764076F375A4755475EA
:102A20000375B1745E740A74B5735E730673AE7227
:102A30005472F9719D714071E17082702270C06FA3
:102A40005E6FFA6E956E306EC96D616DF86C8E6C4E
:102A5000236CB76B4A6BDB6A6C6AFC698B6919691A
:102A6000A5683168BC674567CE665666DD656265F8
:102A7000E7646B64EE637063F1627162F0616E61D2
:102A8000EB606760E25F5D5FD65E4F5EC65D3D5D99
:102A9000B35C285C9C5B0F5B815AF3596359D35834
:102AA0004258B0571D578956F4555F55C954325492
:102AB0009A5301536852CE5133519750FA4F5D4F9C
:102AC000BF4E204E804DE04C3F4C9D4BFA4A574A3A
:102AD000B3490E496948C3471C477446CC45234552
:102AE0007A44D04325437942CD4120417340C53FCC
:102AF000163F673EB73D073D563CA43BF23A3F3A8E
:102B00008C39D83824386F37B93603364D3596347A
:102B1000DE3326336D32B431FB304130862FCC2E7C
:102B2000102E542D982CDB2B1E2B612AA329E5286F
:102B300026286727A726E72527256724A623E4223A
:102B4000232261219F20DC1F191F561E931DCF1CBD
:102B50000B1C461B821ABD19F81833186D17A716DF
:102B6000E1151B1555148E13C7120012391172107E
:102B7000AB0FE30E1B0E530D8B0CC30BFB0A320A7B
:102B80006A09A108D907100747067E05B604ED03B8
:102B900024035B029201C900000037FF6EFEA5FD11
:102BA000DCFC13FC4AFB82FAB9F9F0F827F85FF76E
:102BB00096F6CEF505F53DF475F3ADF2E5F11DF1B0
:102BC00055F08EEFC7EE00EE39ED72ECABEBE5EAB7
:102BD0001FEA59E993E8CDE708E743E67EE5BAE462
:102BE000F5E331E36DE2AAE1E7E024E061DF9FDE97
:102BF000DDDD1CDD5ADC99DBD9DA19DA59D999D82F
:102C0000DAD71BD75DD69FD5E2D425D468D3ACD212
:102C1000F0D134D17AD0BFCF05CF4CCE93CDDACC22
:102C200022CC6ACBB3CAFDC947C991C8DCC728C743
:102C300074C6C1C50EC55CC4AAC3F9C249C299C154
:102C4000EAC03BC08DBFE0BE33BE87BDDBBC30BC3D
:102C500086BBDDBA34BA8CB9E4B83DB897B7F2B6E2
:102C60004DB6A9B506B563B4C1B320B380B2E0B127
:102C700041B1A3B006B069AFCDAE32AE98ADFFACF6
:102C800066ACCEAB37ABA1AA0CAA77A9E3A850A833
:102C9000BEA72DA79DA60DA67FA5F1A464A4D8A3C9
:102CA0004DA3C3A23AA2B1A12AA1A3A01EA0999F9D
:102CB000159F929E109E8F9D0F9D909C129C959BA0
:102CC000199B9E9A239AAA993299BB984498CF97B8
:102CD0005B97E7967596049694952595B6944994D6
:102CE000DD93729308939F923792D0916B910691E6
:102CF000A2904090DE8F7E8F1F8FC08E638E078ED6
:102D0000AC8D528DFA8CA28C4B8CF68BA28B4F8B98
:102D1000FD8AAC8A5C8A0D8AC08973892889DE881D
:102D200095884D880788C1877D873A87F886B7865A
:102D300077863986FC85BF8584854B851285DB8443
:102D4000A4846F843C840984D783A78378834A83CF
:102D50001E83F282C8829F82778250822B820782F2
:102D6000E481C281A2818281648147812C811181A9
:102D7000F880E080C980B4809F808C807A806A80EF
:102D80005A804C803F8033802980208018801180B9
:102D90000B800780048002800000C90092015B0262
:102DA0002403ED03B6047E0547061007D907A108E2
:102DB0006A09320AFB0AC30B8B0C530D1B0EE30E80
:102DC000AB0F721039110012C7128E1355141B1558
:102DD000E115A7166D173318F818BD19821A461B8E
:102DE0000B1CCF1C931D561E191FDC1F9F20612139
:102DF0002322E422A62367242725E725A726672781
:102E00002628E528A329612A1E2BDB2B982C542D7C
:102E1000102ECC2E862F4130FB30B4316D3226334C
:102E2000DE3396344D350336B9366F372438D8380B
:102E30008C393F3AF23AA43B563C073DB73D673EDA
:102E4000163FC53F73402041CD4179422543D043D1
:102E50007A442345CC4574461C47C34769480E490C
:102E6000B349574AFA4A9D4B3F4CE04C804D204EA7
:102E7000BF4E5D4FFA4F97503351CE5168520153B8
:102E80009A533254C9545F55F45589561D57B0575B
:102E90004258D3586359F359815A0F5B9C5B285CA5
:102EA000B35C3D5DC65D4F5ED65E5D5FE25F6760B1
:102EB000EB606E61F0617162F1627063EE636B648E
:102EC000E7646265DD655666CE664567BC67316856
:102ED000A56819698B69FC696C6ADB6A4A6BB76B18
:102EE000236C8E6CF86C616DC96D306E956EFA6EE8
:102EF0005E6FC06F22708270E17040719D71F971D8
:102F00005472AE7206735E73B5730A745E74B174F4
:102F100003755475A475F37540768D76D87622774F
:102F20006B77B377F9773F788378C67808794979F2
:102F30008979C779047A417A7C7AB57AEE7A257BE9
:102F40005C7B917BC47BF77B297C597C887CB67C3D
:102F5000E27C0E7D387D617D897DB07DD57DF97DFA
:102F60001C7E3E7E5E7E7E7E9C7EB97ED47EEF7E23
:102F7000087F207F377F4C7F617F747F867F967FBD
:102F8000A67FB47FC17FCD7FD77FE07FE87FEF7FD3
:102F9000F57FF97FFC7FFE7FFF7FFE7FFC7FF97F5F
:102FA000F57FEF7FE87FE07FD77FCD7FC17FB47F64
:102FB000A67F967F867F747F617F4C7F377F207FDF
:102FC000087FEF7ED47EB97E9C7E7E7E5E7E3E7ED6
:102FD0001C7EF97DD57DB07D897D617D387D0E7D3E
:102FE000E27CB67C887C597C297CF77BC47B917B16
:102FF0005C7B257BEE7AB57A7C7A417A047AC77954
:10300000897949790879C67883783F78F977B377F1
:103010006B772277D8768D764076F375A4755475E4
:103020000375B1745E740A74B5735E730673AE7221
:103030005472F9719D714071E17082702270C06F9D
:103040005E6FFA6E956E306EC96D616DF86C8E6C48
:10305000236CB76B4A6BDB6A6C6AFC698B69196914
:10306000A5683168BC674567CE665666DD656265F2
:10307000E7646B64EE637063F1627162F0616E61CC
:10308000EB606760E25F5D5FD65E4F5EC65D3D5D93
:10309000B35C285C9C5B0F5B815AF3596359D3582E
:1030A0004258B0571D578956F4555F55C95432548C
:1030B0009A5301536852CE5133519750FA4F5D4F96
:1030C000BF4E204E804DE04C3F4C9D4BFA4A574A34
:1030D000B3490E496948C3471C477446CC4523454C
:1030E0007A44D04325437942CD4120417340C53FC6
:1030F000163F673EB73D073D563CA43BF23A3F3A88
:103100008C39D83824386F37B93603364D35963474
:10311000DE3326336D32B431FB304130862FCC2E76
:10312000102E542D982CDB2B1E2B612AA329E52869
:1031300026286727A726E72527256724A623E42234
:10314000232261219F20DC1F191F561E931DCF1CB7
:103150000B1C461B821ABD19F81833186D17A716D9
:10316000E1151B1555148E13C71200123911721078
:10317000AB0FE30E1B0E530D8B0CC30BFB0A320A75
:103180006A09A108D907100747067E05B604ED03B2
:1031900024035B029201C900000037FF6EFEA5FD0B
:1031A000DCFC13FC4AFB82FAB9F9F0F827F85FF768
:1031B00096F6CEF505F53DF475F3ADF2E5F11DF1AA
:1031C00055F08EEFC7EE00EE39ED72ECABEBE5EAB1
:1031D0001FEA59E993E8CDE708E743E67EE5BAE45C
:1031E000F5E331E36DE2AAE1E7E024E061DF9FDE91
:1031F000DDDD1CDD5ADC99DBD9DA19DA59D999D829
:10320000DAD71BD75DD69FD5E2D425D468D3ACD20C
:10321000F0D134D17AD0BFCF05CF4CCE93CDDACC1C
:1032200022CC6ACBB3CAFDC947C991C8DCC728C73D
:1032300074C6C1C50EC55CC4AAC3F9C249C299C14E
:10324000EAC03BC08DBFE0BE33BE87BDDBBC30BC37
:1032500086BBDDBA34BA8CB9E4B83DB897B7F2B6DC
:103260004DB6A9B506B563B4C1B320B380B2E0B121
:1032700041B1A3B006B069AFCDAE32AE98ADFFACF0
:1032800066ACCEAB37ABA1AA0CAA77A9E3A850A82D
:10329000BEA72DA79DA60DA67FA5F1A464A4D8A3C3
:1032A0004DA3C3A23AA2B1A12AA1A3A01EA0999F97
:1032B000159F929E109E8F9D0F9D909C129C959B9A
:1032C000199B9E9A239AAA993299BB984498CF97B2
:1032D0005B97E7967596049694952595B6944994D0
:1032E000DD93729308939F923792D0916B910691E0
:1032F000A2904090DE8F7E8F1F8FC08E638E078ED0
:10330000AC8D528DFA8CA28C4B8CF68BA28B4F8B92
:10331000FD8AAC8A5C8A0D8AC08973892889DE8817
:1033200095884D880788C1877D873A87F886B78654
:1033300077863986FC85BF8584854B851285DB843D
:10334000A4846F843C840984D783A78378834A83C9
:103350001E83F282C8829F82778250822B820782EC
:10336000E481C281A2818281648147812C811181A3
:10337000F880E080C980B4809F808C807A806A80E9
:103380005A804C803F8033802980208018801180B3
:103390000B80078004800280000000000101010111
:1033A00000001818F8FC06020206FCF8070F1810B7
:1033B00010180F07080C06FEFE0000001010101F6A
:1033C0001F1010100000C0F83E063EF8C0000018A4
:1033D0001F070202020202071F18F0FC0C0602027D
:1033E000020204030F0C181010101008FEFE4242D7
:1033F0004242021F1F1010101010FEFE42424242B5
:10340000421F1F0000000000FEFE404040404040C0
:10341000FEFE1F1F0000000000001F1FFEFE1F1FFA
:10342000000000FEFE0810101F0FFEFE000000004E
:10343000001F1F1010101010FEFE063CF0C0000010
:10344000FEFE1F1F000000030F181F1FF0FC0C06DC
:10345000020202060CFCF0030F0C18101010180CDE
:103460000F03FEFE828282C67C38001F1F00000010
:10347000030F1C10387C66C2C2860408181010198D
:103480000F07020202FEFE0202020000001F1F00E0
:103490000000FEFE000000000000FEFE070F1810F6
:1034A000101010180F0730F0C0000000C0F03000FE
:1034B00001071E181E070100FEFE424242FE9C004C
:1034C0001F1F101010180F07FEFE4040E0B81E0628
:1034D0001F1F000000071F18FEFE0E7CE00000000A
:1034E000E03C0EFEFE1F1F0000010F180F01000040
:1034F0001F1FF0F0101010F0E01F1F1111111F0E10
:10350000F0F01010101F1F0000000000F0F010106D
:1035100010F0F000F01E17101010101F1FF0C0E088
:10352000301010F0E0070F1911111109F0F00080B0
:10353000E0F0F01F1F0E03001F1FF0F30784E4F7F5
:10354000F31F1F0E03001F1FF0F00000C0F0301F1C
:103550001F0101061E18000000F01010F0F01018F6
:103560000F0100001F1FF0F0F0C0000000C0F0F0DD
:10357000F01F1F00031F180F03001F1FF0F00000B3
:1035800000F0F01F1F0101011F1FC0E030101030BC
:10359000E0C0070F181010180F07F0F020101030BF
:1035A000E0C0FFFF081010180F07101010F0F01007
:1035B00010100000001F1F000000F0F0000000F0DD
:1035C000F0000000F0F01F1F1010101F1F1010104F
:1035D0001F1FF0F0808080800000F0F01F1F10108F
:1035E000100F0F001F1F0400020000000200020065
:1035F0000800080002000C00080002001C000B007C
:1036000002002C00090002004200070002005400E2
:103610000700020062000A000200700002000200BF
:1036200084000500020088000700020092000A00E2
:103630000200A0000B000200B40009000200CA0052
:1036400007000200DC0008000200EA000A00020095
:10365000FA00090002000E01080002002001080023
:10366000020030010D0002004001070002005A0173
:103670000500020068010A00020072010700020052
:10368000860107000200940107000200A201070062
:103690000200B00108000200BE010B000200CE01D2
:1036A00007000200E40108000200F2010800020025
:1036B00002020800020012020C00020022020A00AC
:1036C00002003A022D002E00E635000830003100DD
:1036D000F235000841004100FE3500084300430078
:1036E00004360008450046000A36000848004A0033
:1036F000163600084C004C00283600084E004F00DB
:103700002E360008520055003A3600087600760042
:1037100052360008C200C20058360008CA00CA006B
:103720005E360008CC00CC0064360008E200E500FC
:103730006A360008E800EE0082360008F000F0006B
:10374000AC360008F200F200B2360008F800F800CB
:10375000B8360008FB00FB00BE3600082D00FB0059
:1037600002000000C436000813000000983300086F
:10377000000000008080808007070707F8FEFFFF39
:103780000707FFFEFEF8FFFFFFFF0000FFFFFFFF40
:103790000003070707070707030118181CFCFEFFB3
:1037A000FF000000FFFFFFFF000000070707077C86
:1037B0007E7F0787FFFFFEFC00C0F0FEFF3F0F0388
:1037C000000707070707070707073C3E3FBF878734
:1037D000FFFFFE7CF8F8F8FB0303FFFFFEFE01038A
:1037E00007070707070703010000E0FCFF1FFFFFB3
:1037F000FFFF00F8FFFFF7F0F0FFFFFFFFF0000012
:10380000000000000707070700FFFFFFFFC7E7E70B
:10381000E7C787F3F3F3F30000FFFFFFFF010307A0
:1038200007070707070301F8FEFFFF87C7DFDF9ED3
:103830001CFFFFFFFF0101FFFFFFFF00030707075A
:10384000070707030107070707FFFFFF3F0000F017
:10385000FFFFFF070000060707070000007CFEFFD0
:10386000FF8787FFFFFE7CFCFEFFFF0303FFFFFED9
:10387000FC01030707070707070301FCFEFFFF071B
:1038800007FFFFFEFCC7CFDFDF1C0CFFFFFFFF01C0
:103890000307070707070303008080808087878767
:1038A000870707070700C0FFFFFF07FFFFFFC000F4
:1038B00080FFFFFFE3E0E3FFFFFF8007070707004C
:1038C000000007070707FFFFFFFFC7C7FFFF7E7C5A
:1038D000FFFFFFFF0303FFFFFFFE070707070707C1
:1038E00007070701FFFFFFFF0F0F0F0FFFFFFFFF8E
:1038F000000000000707070700000000000000FFAD
:10390000FFFFFF0F0F0FFFFFFFFF0080E0FFFFFF34
:10391000BF83808080FFFFFFFF803F3F3F3F07075F
:1039200007070707073F3F3F3FFFFFFFFF8F8F8FCF
:1039300000FFFFFFFF878787800707070707070745
:103940000701FFFFFFFF0000FFFFFFFF0000FFFF79
:10395000FFFF0100F8FDFDFF0707FFFFFFFF07075F
:10396000FFFDFDF80004070707070000070707072A
:1039700000000707070704FFFFFFFF0000FEFFFF2F
:10398000FF01FFFFFFFF0707FFFDFDF80007070727
:10399000070000030707070400FFFFFFFF0F0F0FDB
:1039A000FFFFFFFF00FFFFFFFF000000FFFFFFFF23
:1039B000070707070100000007070707FFFFFFFFD2
:1039C0008080FFFFFFFFFFFFFFFF0707FFFFFFFFF5
:1039D00007070707000007070707F8FEFEFF0707AE
:1039E000FFFEFEF8FFFFFFFF0000FFFFFFFF0003E9
:1039F0000307070707030300FFFFFFFF0707FFFF9A
:103A0000FEFCFFFFFFFF0707070703030707070782
:103A10000000000000000F0F0FFFFFFFFF0F0F0F50
:103A2000000000FFFFFFFF00000000000007070785
:103A300007000000073FFFFFF8C0F8FFFF3F0780C7
:103A4000F0FFFF7F077FFFFFF080070707070000F9
:103A50000007070707FFFFFFFF80808080800000CE
:103A60000000FFFFFFFFFFFFFFFF030303FFFFFF58
:103A7000FE0000FFFFFFFF0707070707070707070D
:103A80000703000007070707E0F0F8383838F8F8B0
:103A9000F0E0F1F9FD0C0E06FFFFFFFF030707073B
:103AA000070307070707E0F0F8F83838F8F0F0C028
:103AB000FFFFFFFF0707F7F7F7F701030307070704
:103AC00007070300E0F0F8F83838F8F8F0E0E1E133
:103AD000E1E10C0CFFFFFFF30103070707070707EE
:103AE0000301F8F8F8F80000F0F8F8F8F8FFFFFF25
:103AF000FFF03F03FFFFFFFF070707070300000773
:103B0000070707F8F8F8F80000F8F8F8F808FFFFDA
:103B1000FFFF0E0EFFFBFBF1000707070700000386
:103B2000070707040000F8F8F8F83838F8F8F8F84C
:103B30000000FFFFFFFF0000FFFFFFFF0707070771
:103B40000703000007070707F8F8F8F8F8F0000087
:103B5000F8F8F8F8F8F8FFFFFFFF07FFFCFCFF0795
:103B6000FFFFFFFF0707070700010707010007071F
:103B70000707F8F8F8F8000000F8F8F8F8FFFFFF7A
:103B8000FF1E1E1EFFFFFFFF0707070700000007BD
:103B9000070707C0F0F8F83838F8F0F0E0FFFFFF4B
:103BA000FF0000FFFFFFFF010307070707070703E9
:103BB00000F8F8F8F83038F8F8F8F0FFFFFFFF00E9
:103BC00000FFFFFFFF1F1F1F1F030707070703E07B
:103BD000F0F8F8383838F0F0E0FFFFFFFF000000A1
:103BE000F1F1F1000307070707070303003838382E
:103BF000F8F8F8F8383838000000FFFFFFFF000041
:103C0000000000000707070700000018F8F8F80098
:103C10000000F8F8F81800033FFFFF80FFFFFF1FC8
:103C200000001C1C1F1F1F1F0F070000F8F8F8F8EA
:103C30000000F8F8F8F83F7F7F7F7030FFFFFFFF4C
:103C40000000000000000707070704000300000051
:103C50000A0003000C00070003002A00090003000B
:103C60003F000A0003005A000B00030078000A001E
:103C7000030099000A000300B70008000300D50004
:103C80000A000300ED000A0003000B01040003001A
:103C900029010B00030035010A000300560108004A
:103CA000030074010F0003008C0108000300B90138
:103CB00012000300D1010B00030007020C000300F7
:103CC00028020A0003004C020A0003006A020A00EC
:103CD000030088020A000300A6020B000300C402CE
:103CE00011000300E5020A00030018030A000300A4
:103CF00036030A00030054030B00030072030B0099
:103D0000030093030C000300B4030E000300D80368
:103D10000B00030002040A00030023040A0003004E
:103D200041040A0003005F040A0003007D040B0045
:103D300003009B040A000300BC0400002E002E00B8
:103D40004A3C000830003A00503C0008C000C00067
:103D5000923C0008C200C600983C0008CA00CB0094
:103D6000B63C0008CD00CE00C23C0008D000D00018
:103D7000CE3C0008D200D200D43C0008D500D500CB
:103D8000DA3C0008DB00DB00E03C0008E000E0007B
:103D9000E63C0008E500E500EC3C0008E700E80030
:103DA000F23C0008EA00EE00FE3C0008F000F300E0
:103DB0001C3D0008F700F700343D00082E00F70016
:103DC000020000003C3D00081000000070370008B1
:103DD000003F00080000002020000000FC00000858
:103DE000203F000820000020400C000018010008BF
:103DF0001001000043000000F8FFFFFF00404040BA
:103E000040404040404041414141414040404040AD
:103E10004040404040404040404040404005020259
:103E20000202020202020202020202020220202018
:103E30002020202020202002020202020202909074
:103E40009090909010101010101010101010101072
:103E500010101010101010100202020202028888C6
:103E600088888888080808080808080808080808D2
:103E700008080808080808080202020240000000BA
:103E80000000000000000000000000000000000032
:103E90000000000000000000000000000000000022
:103EA0000000000000000000000000000000000012
:103EB0000000000000000000000000000000000002
:103EC00000000000000000000000000000000000F2
:103ED00000000000000000000000000000000000E2
:103EE00000000000000000000000000000000000D2
:103EF00000000000000000000000000000000000C2
:103F000000000000000000000000000000000000B1
:103F100000000000000000000000000000127A0015
:040000050800016D81
:00000001FF
