:020000040800F2
:10000000B00700205D0100086501000867010008D5
:10001000690100086B0100086D0100080000000084
:100020000000000000000000000000006F01000858
:10003000710100080000000073010008750100084C
:100040007701000877010008770100080000000030
:100050000000000077010008770100087701000820
:100060007701000800000000770100087701000810
:100070007701000800000000770100087701000800
:1000800077010008770100080000000077010008F0
:1000900077010008000000000000000000000000E0
:1000A00000000000000000000000000077010008D0
:1000B0007701000877010008770100087701000840
:1000C00000F002F800F03AF80AA090E8000C824430
:1000D0008344AAF10107DA4501D100F02FF8AFF20D
:1000E000090EBAE80F0013F0010F18BFFB1A43F016
:1000F000010318475817000078170000103A24BF72
:1001000078C878C1FAD8520724BF30C830C144BF7C
:1001100004680C60704700000023002400250026BE
:10012000103A28BF78C1FBD8520728BF30C148BF5A
:100130000B6070471FB51FBD10B510BD00F031F842
:100140001146FFF7F7FF00F047FE00F04FF803B449
:10015000FFF7F2FF03BC00F057F8000009488047A2
:1001600009480047FEE7FEE7FEE7FEE7FEE7FEE799
:10017000FEE7FEE7FEE7FEE704480549054A064BB1
:1001800070470000F5080008C1000008B001002019
:10019000B0070020B0030020B00300207047704774
:1001A0007047754600F02CF8AE4605006946534688
:1001B00020F00700854618B020B5FFF7DDFFBDE849
:1001C00020404FF000064FF000074FF000084FF0BE
:1001D000000B21F00701AC46ACE8C009ACE8C0094F
:1001E000ACE8C009ACE8C0098D46704710B50446BC
:1001F000AFF300802046BDE81040FFF7A8BF000025
:10020000004870474C01002001491820ABBEFEE7B2
:10021000260002007047000046F2490001490860CC
:10022000704700000080084000200C49096841F038
:1002300002010A4A116000BF0849096A09B901218F
:1002400000E0002101F001010029F5D1034A11620B
:1002500011468869C0F30B00704700000080084019
:100260002DE9FC5F06460F4614469846DDF83090AF
:10027000019440F23F10A0EB080084B240F23F111D
:100280000198081A1FFA80F800254FF0000A00961E
:10029000A34600BF21E00BEB0500401C83B20BEB33
:1002A000050081B23A46009800F0AAF92C2000F02F
:1002B00073F94FF0000A0BE04FEA292000F086F9AD
:1002C00009F0FF0000F082F90AF101001FFA80FA3C
:1002D000B81B5045F0DA681C85B2A8EB0400A842B0
:1002E000D9DABDE8FC9F2DE9F04104462612E7B2B9
:1002F00040F23F13EF220021084600F081F92C2044
:1003000000F04AF9002506E0B0B200F05FF9B8B29B
:1003100000F05CF96D1CB5F5963FF5D3BDE8F081B2
:1003200010B59948006840F008009749086080219E
:10033000964800F099F9012000F02EF964219448C4
:1003400000F022FCCB2000F027F9392000F03EF924
:100350002C2000F03BF9002000F038F9342000F0A8
:1003600035F9022000F032F9CF2000F015F9002015
:1003700000F02CF9C12000F029F9302000F026F916
:10038000E82000F009F9852000F020F9002000F0B5
:100390001DF9782000F01AF9EA2000F0FDF800209D
:1003A00000F014F9002000F011F9ED2000F0F4F84D
:1003B000642000F00BF9032000F008F9122000F08F
:1003C00005F9812000F002F9F72000F0E5F820207F
:1003D00000F0FCF8C02000F0DFF8232000F0F6F871
:1003E000C12000F0D9F8102000F0F0F8C52000F08E
:1003F000D3F83E2000F0EAF8282000F0E7F8C72004
:1004000000F0CAF8862000F0E1F8362000F0C4F8C9
:10041000482000F0DBF83A2000F0BEF8552000F04C
:10042000D5F8B12000F0B8F8002000F0CFF818207F
:1004300000F0CCF8B62000F0AFF8082000F0C6F8C5
:10044000822000F0C3F8272000F0C0F8F22000F06E
:10045000A3F8002000F0BAF82A2000F09DF8002050
:1004600000F0B4F8002000F0B1F8002000F0AEF881
:10047000EF2000F0ABF82B2000F08EF8002000F009
:10048000A5F8002000F0A2F8012000F09FF83F201E
:1004900000F09CF8262000F07FF8012000F096F88C
:1004A000E02000F079F80F2000F090F8312000F003
:1004B0008DF82B2000F08AF80C2000F087F80E2031
:1004C00000F084F8082000F081F84E2000F07EF85B
:1004D000F12000F07BF8372000F078F8072000F0DA
:1004E00075F8102000F072F8032000F06FF80E206D
:1004F00000F06CF8092000F069F8002000F066F8C0
:10050000E12000F049F8002000F060F80E2000F033
:100510005DF8142000F05AF8032000F057F811207D
:1005200000F054F8072000F051F8312000F04EF8A8
:10053000C12000F04BF8482000F048F8082000F0F7
:1005400045F80F2000F042F80C2000F03FF8312071
:1005500000F03CF8362000F039F80F2000F036F8B3
:10056000112000F019F86421094800F00DFB292042
:1005700000F012F82C2000F00FF80648006840F058
:1005800080000449086010BD00000C4000800C4051
:100590000080074000800A4010B504464021094809
:1005A00000F054F80848006820F008000649086088
:1005B000204600F043F90448006840F00800024972
:1005C000086010BD00800A4000000C4010B50446D1
:1005D0004021094800F048F80848006820F0080069
:1005E00006490860204600F029F90448006840F0F8
:1005F00008000249086010BD00800A4000000C405D
:100600002DE9F04104460D4616461F462A20FFF705
:10061000C3FF2012FFF7DAFFE0B2FFF7D7FF301277
:10062000FFF7D4FFF0B2FFF7D1FF2B20FFF7B4FFA5
:100630002812FFF7CBFFE8B2FFF7C8FF3812FFF729
:10064000C5FFF8B2FFF7C2FFBDE8F0810268054BB5
:10065000984201D11F2300E000230B439A4302601C
:100660007047000000000C400268054B984201D121
:100670001F2300E000239A430A43026070470000F2
:1006800000000C40014908607047000088004042AB
:1006900010B502460C4BD86820F003001043D86018
:1006A000586820F4706040EA01205860074B1B68CE
:1006B00043B10123054C241D23600023034C883CD7
:1006C000C4F88C3010BD0000000002408800404299
:1006D00038B50020009000BF212000F02FF805461B
:1006E0000098401C00900098B0F5C06F01D2002D1A
:1006F000F2D0212000F022F808B1012400E000240B
:10070000204638BD0149086070470000880140421A
:100710000146044AD06820F0F00040EA0110D060A1
:1007200070470000000002400146034AD06820F4F0
:1007300040700843D06070470000024010B5014689
:1007400001F0E003202B02D1074B1A6801E0074BB0
:10075000DA6B01F01F040123A34013400BB1012009
:1007600000E0002010BD00000000024000800D40AD
:100770000D49896821F003010B4A9160012802D0DC
:1007800002280ED106E00849896841F00101064AB5
:10079000916007E00449896841F00301024A9160D1
:1007A00000E000BF00BF70470000024038B50020E5
:1007B000009000BF2220FFF7C1FF05460098401CB3
:1007C00000900098B0F5C06F01D2002DF2D0222029
:1007D000FFF7B4FF08B1012400E00024204638BD33
:1007E00029B1064AD2690243044BDA6104E0034AA4
:1007F000D2698243014BDA61704700000000024079
:1008000000B50748C06A40F000700549C86200F0B2
:100810000BF807200349086002204860086100BD0A
:100820000000024000000A400020034908604860C0
:10083000086148614862704700000A4008498860C2
:1008400000BF0749C96801F010010029F9D100BFB4
:100850000349C96801F001010029F9D0704700007F
:1008600000000A4030B5204CE46804F00204022C79
:1008700001D11E4800E01D481B4CE46804F001044F
:1008800004B140080146184CE46804F00404042C48
:1008900005D1154C6468C4F30324631C5943124CFE
:1008A000E468C4F3012424B1012C06D0022C13D136
:1008B0000DE00E4C0E4D2C6013E00B4CE468C4F3BD
:1008C0000314641CB1FBF4F2094C226009E04FF4FC
:1008D0000044074D2C6004E049F64044044D2C6070
:1008E00000BF00BF30BD00000000024000127A00CF
:1008F0000800002000B50D480D49C8610846C068D1
:100900000020C860084640680020486008468068AB
:100910000020886008460069002008610846406998
:1009200000204861FFF79EFF00BD00001000000896
:10093000000002400246104B586A104B9A4205D103
:1009400020F0FF00084340F0807012E00C4B9A4208
:1009500006D120F47F4040EA012040F0007008E01A
:10096000084B9A4205D120F47F0040EA014040F054
:100970008060014B58627047000002400000074051
:1009800000800740000008400A46C16812B141F0EB
:10099000010101E021F00101C160704730B50C8810
:1009A00004604C8844608C888460CC880D892C4419
:1009B0004D892C448D892C44CD896319C3604C8AA0
:1009C0000D8A04EB05148D8A2C44CD8A62190265C8
:1009D00030BD0021018041808180C1800181418141
:1009E0008181C181018241828182C182704700215F
:1009F000C160016041608160016241628162C162E7
:100A0000016341638163C163016641668166C166BA
:100A1000016141618161C161016741678167C167AE
:100A2000016441648164C164016541658165C1659A
:100A30007047000000B587B01B48FFF7D8FF0321BF
:100A40001948FFF777FF01A8FFF7C3FF42F20F70C5
:100A5000ADF806004FF6FF70ADF8080001A9124886
:100A6000FFF79CFF0F20002817DB00F01F02012179
:100A700091400E4A430942F8231000BF00BF00BF57
:100A8000BFF34F8F00BF00BF00BF00BF00BF00BF5C
:100A9000BFF36F8F00BF00BF00BF00BF012102483E
:100AA000FFF772FF07B000BD0080074080E100E063
:100AB00010B501241A48006840F018001849086071
:100AC0000120FFF755FEFFF771FE01281BD107211A
:100AD0000220FFF7DDFD0120FFF7D4FD00BFFFF787
:100AE000F7FD0128FBD1FFF7F3FD01280BD1FFF73C
:100AF00009FE0020FFF70CFE4FF48070FFF714FE94
:100B0000FFF7B0FE00240748806B40F0070005495E
:100B100088630846806B40F038008863204610BD2B
:100B20000080014000800D4010B501211020FFF72A
:100B300057FE01214805FFF753FE01210806FFF784
:100B40004FFE01214806FFF74BFE0121C806FFF7C3
:100B500047FE01210805FFF743FE01214804FFF786
:100B60003FFE01218803FFF73BFE0121C803FFF789
:100B700037FE01210804FFF733FE10BD10B5FFF763
:100B800097FFFFF7D1FF10BD08B50022009242F297
:100B90000F72426000220260026892B2009200BFAF
:100BA0000268BDF80030D21A92B28A42F8DB08BD62
:100BB00008B5002200920922426000220260026809
:100BC00092B2009200BF0268BDF80030D21A92B211
:100BD0008A42F8DB08BD00002DE9F04F8AB00346D9
:100BE0000C4615464FF0000C0120A84080B207903B
:100BF0000798401E80B2069001271CE00798C5B2F6
:100C000000BF6D100CEB050A06988245F9DC681EE2
:100C100000EA0C0028441FFA80FCBC4500DC08E018
:100C200033F9178033F81C0023F8170023F81C80D1
:100C300000BF781C87B206988742DFDB01260920B7
:100C40000990BFE04FF6FF7B0BEA460BCDF820B0D2
:100C50004FF00009A9E0DDF824B009FA0BFB1FFAF8
:100C60008BFBCDF814B0DFF86CE1DDF814B00BF5B8
:100C7000807B3EF91BB0CDF810B0DDF814B03EF823
:100C80001BB0CBF1000B0FFA8BFBCDF80CB0DDF8ED
:100C900010B04FEA6B0BCDF810B0DDF80CB04FEA96
:100CA0006B0BCDF80CB0494677E001EB060B1FFA51
:100CB0008BF233F912B0DDF810E00BFB0EF080136D
:100CC00000F0010A0AEB600B0FFA8BF834F912B04E
:100CD000DDF80CE00BFB0EF0801300F0010A0AEBCC
:100CE000600BA8EB0B0B0FFA8BF834F912B0DDF8A0
:100CF00010E00BFB0EF0801300F0010A0AEB600B12
:100D00000FFA8BFBCDF800B033F912B0DDF80CE030
:100D10000BFB0EF0801300F0010A0AEB600EDDF809
:100D200000B0F3440FFA8BFBCDF800B033F911B0EB
:100D3000CDF808B034F911B0CDF804B0DDF808B042
:100D40004FEA6B0BCDF808B0DDF804B04FEA6B0B3F
:100D5000CDF804B0DDF808B0C3440FFA8BFB23F8DC
:100D600011B0DDE900EBF3440FFA8BFB24F811B06E
:100D7000DDF808B0ABEB080B0FFA8BFB23F812B0D1
:100D8000DDE900EBABEB0E0B0FFA8BFB24F812B096
:100D9000DDF820B08B441FFA8BF1DDF81CB059450B
:100DA00083DB09F1010B1FFA8BF9B145FFF653AF55
:100DB000DDF824B0ABF1010B1FFA8BFBCDF824B0AA
:100DC000089E00BF07988642FFF63CAF0AB0BDE818
:100DD000F08F00004A12000808B5FFF7CFFEFFF7BA
:100DE00029FE00F0E5F9FFF717FAFFF709FDFFF715
:100DF00097FA4FF6FF70FFF776FA93E0002422E0AF
:100E0000002508E0FFF710FA4749096808444649F9
:100E10000860681CC5B2022DF4DB43480068400836
:100E200000B2A0F2E4708010404921F814000020C4
:100E30003F4921F814003C49086014213D48FFF760
:100E4000B7FE601CC4B2402CDADB062238493748B2
:100E5000FFF7C2FE00245FE0344830F9140040433D
:100E6000334931F91410324A32F9142001FB0200DF
:100E700000B22E4921F81400084630F91400002869
:100E800008DB31F9140000F0CBF900B2274921F852
:100E9000140003E00020254921F81400264830F909
:100EA0001400224931F91410884210DA0020009011
:100EB00004EB8400092505EB400304EB84004200A9
:100EC0001A4830F8140081B20020FFF7C9F91A4817
:100ED00030F91400154931F91410884214DD4FF629
:100EE000FF7004EB8405092606EB450304EB84053B
:100EF0006A00114D009035F81450A9B20B4D35F829
:100F00001450A8B2FFF7ACF9084830F814000A49A9
:100F100021F81400601CC4B2202C9DDB0A21054876
:100F2000FFF732FE6AE70000000000208C0000207E
:100F30000C000020008007400C01002010B50022AA
:100F40001021044800F05EF800221021014800F052
:100F50004FF810BD00000C4070B50B460021012475
:100F600005E04D1CE9B24FF6FF7505EA44049C42CA
:100F7000F7DB84684E000325B540AC43846032B192
:100F8000012A0BD0022A10D0032A1CD114E0846855
:100F90004E000025B5402C43846014E084684E0068
:100FA0000125B5402C4384600DE084684E00022585
:100FB000B5402C43846006E084684E000325B540AC
:100FC0002C43846000BF00BF70BD000010B54021FD
:100FD000054800F0F5F88021034800F0F1F8802181
:100FE000024800F0EDF810BD00800A4000800C407F
:100FF000012A03D1C3680B43C36002E0C3688B437B
:10100000C3607047012A03D143680B43436002E089
:1010100043688B4343607047012A03D143690B4304
:10102000436102E043698B4343617047012A04D165
:10103000436943EA0143436103E0436923EA01430F
:1010400043617047012A03D103690B43036102E046
:1010500003698B4303617047012A04D1036943EAA2
:101060000143036103E0036923EA0143036170471D
:1010700070B50B460021012405E04D1CE9B24FF686
:10108000FF7505EA44049C42F7DB84694E000325A2
:10109000B540AC43846132B1012A0BD0022A10D092
:1010A000032A1CD114E084694E000025B5402C436E
:1010B000846114E084694E000125B5402C438461AD
:1010C0000DE084694E000225B5402C43846106E0A2
:1010D00084694E000325B5402C43846100BF00BFE6
:1010E00070BD000010B5022204213048FFF734FF24
:1010F000002204212D48FFF785FF012204212B48FF
:10110000FFF776FF002204212848FFF78FFF002217
:1011100004212648FFF780FF032204212348FFF71C
:10112000A7FF022240212148FFF716FF012240219C
:101130001E48FFF767FF012240211C48FFF758FFB8
:10114000002240211948FFF771FF00224021174873
:10115000FFF762FF032240211448FFF789FF0222B4
:1011600020211248FFF7F8FE012220210F48FFF747
:1011700049FF012220210D48FFF73AFF00222021DC
:101180000A48FFF753FF002220210848FFF744FFD9
:10119000032220210548FFF76BFF0821034800F0D8
:1011A0000FF808210148FFF75FFA10BD00000C405E
:1011B00010B5FFF70BFFFFF795FFFFF7BFFE10BD60
:1011C00070B504460D46012229462046FFF71AFF56
:1011D000012229462046FFF70BFF00222946204620
:1011E000FFF7BAFE002229462046FFF71FFF002224
:1011F00029462046FFF710FF022229462046FFF726
:1012000037FF002229462046FFF726FF0022294605
:101210002046FFF717FF29462046FFF717FA70BD53
:1012200002464FF08041002000E089109142FCD836
:1012300008E04318934203D8131A5A1A00EB4100EE
:10124000401089100029F4D170470000C9009201B4
:101250005B022403ED03B6047E0547061007D90799
:10126000A1086A09320AFB0AC30B8B0C530D1B0E33
:10127000E30EAB0F721039110012C7128E13551402
:101280001B15E115A7166D173318F818BD19821A2A
:10129000461B0B1CCF1C931D561E191FDC1F9F20C5
:1012A00061212322E422A62367242725E725A726F8
:1012B00067272628E528A329612A1E2BDB2B982CDB
:1012C000542D102ECC2E862F4130FB30B4316D3290
:1012D0002633DE3396344D350336B9366F3724382E
:1012E000D8388C393F3AF23AA43B563C073DB73DDB
:1012F000673E163FC53F73402041CD4179422543AB
:10130000D0437A442345CC4574461C47C3476948BB
:101310000E49B349574AFA4A9D4B3F4CE04C804D29
:10132000204EBF4E5D4FFA4F97503351CE51685209
:1013300001539A533254C9545F55F45589561D5779
:10134000B0574258D3586359F359815A0F5B9C5B8D
:10135000285CB35C3D5DC65D4F5ED65E5D5FE25F5F
:101360006760EB606E61F0617162F1627063EE6301
:101370006B64E7646265DD655666CE664567BC678B
:101380003168A56819698B69FC696C6ADB6A4A6B0C
:10139000B76B236C8E6CF86C616DC96D306E956E99
:1013A000FA6E5E6FC06F22708270E17040719D7145
:1013B000F9715472AE7206735E73B5730A745E741B
:1013C000B17403755475A475F37540768D76D8762F
:1013D00022776B77B377F9773F788378C678087987
:1013E00049798979C779047A417A7C7AB57AEE7A33
:1013F000257B5C7B917BC47BF77B297C597C887C3B
:10140000B67CE27C0E7D387D617D897DB07DD57DA9
:10141000F97D1C7E3E7E5E7E7E7E9C7EB97ED47E85
:10142000EF7E087F207F377F4C7F617F747F867FD0
:10143000967FA67FB47FC17FCD7FD77FE07FE87F97
:10144000EF7FF57FF97FFC7FFE7FFF7FFE7FFC7FD4
:10145000F97FF57FEF7FE87FE07FD77FCD7FC17F8A
:10146000B47FA67F967F867F747F617F4C7F377FB6
:10147000207F087FEF7ED47EB97E9C7E7E7E5E7E5E
:101480003E7E1C7EF97DD57DB07D897D617D387D78
:101490000E7DE27CB67C887C597C297CF77BC47B02
:1014A000917B5C7B257BEE7AB57A7C7A417A047AF3
:1014B000C779897949790879C67883783F78F97747
:1014C000B3776B772277D8768D764076F375A475EF
:1014D00054750375B1745E740A74B5735E730673E4
:1014E000AE725472F9719D714071E1708270227018
:1014F000C06F5E6FFA6E956E306EC96D616DF86C7F
:101500008E6C236CB76B4A6BDB6A6C6AFC698B6907
:101510001969A5683168BC674567CE665666DD65A2
:101520006265E7646B64EE637063F1627162F0613F
:101530006E61EB606760E25F5D5FD65E4F5EC65DC9
:101540003D5DB35C285C9C5B0F5B815AF35963592A
:10155000D3584258B0571D578956F4555F55C95452
:1015600032549A5301536852CE5133519750FA4F27
:101570005D4FBF4E204E804DE04C3F4C9D4BFA4A94
:10158000574AB3490E496948C3471C477446CC457E
:1015900023457A44D04325437942CD4120417340CD
:1015A000C53F163F673EB73D073D563CA43BF23A68
:1015B0003F3A8C39D83824386F37B93603364D3531
:1015C0009634DE3326336D32B431FB304130862F12
:1015D000CC2E102E542D982CDB2B1E2B612AA329E8
:1015E000E52826286727A726E72527256724A62399
:1015F000E422232261219F20DC1F191F561E931D08
:10160000CF1C0B1C461B821ABD19F81833186D1716
:10161000A716E1151B1555148E13C71200123911A8
:101620007210AB0FE30E1B0E530D8B0CC30BFB0A9A
:10163000320A6A09A108D907100747067E05B604D1
:10164000ED0324035B029201C900000037FF6EFE28
:10165000A5FDDCFC13FC4AFB82FAB9F9F0F827F887
:101660005FF796F6CEF505F53DF475F3ADF2E5F1CD
:101670001DF155F08EEFC7EE00EE39ED72ECABEBDD
:10168000E5EA1FEA59E993E8CDE708E743E67EE596
:10169000BAE4F5E331E36DE2AAE1E7E024E061DFDB
:1016A0009FDEDDDD1CDD5ADC99DBD9DA19DA59D988
:1016B00099D8DAD71BD75DD69FD5E2D425D468D385
:1016C000ACD2F0D134D17AD0BFCF05CF4CCE93CDB0
:1016D000DACC22CC6ACBB3CAFDC947C991C8DCC7F2
:1016E00028C774C6C1C50EC55CC4AAC3F9C249C225
:1016F00099C1EAC03BC08DBFE0BE33BE87BDDBBC35
:1017000030BC86BBDDBA34BA8CB9E4B83DB897B703
:10171000F2B64DB6A9B506B563B4C1B320B380B275
:10172000E0B141B1A3B006B069AFCDAE32AE98AD75
:10173000FFAC66ACCEAB37ABA1AA0CAA77A9E3A8E5
:1017400050A8BEA72DA79DA60DA67FA5F1A464A4B1
:10175000D8A34DA3C3A23AA2B1A12AA1A3A01EA0BF
:10176000999F159F929E109E8F9D0F9D909C129CFD
:10177000959B199B9E9A239AAA993299BB98449853
:10178000CF975B97E7967596049694952595B694B2
:101790004994DD93729308939F923792D0916B9105
:1017A0000691A2904090DE8F7E8F1F8FC08E638E39
:1017B000078EAC8D528DFA8CA28C4B8CF68BA28B43
:1017C0004F8BFD8AAC8A5C8A0D8AC089738928890F
:1017D000DE8895884D880788C1877D873A87F88697
:1017E000B78677863986FC85BF8584854B851285CB
:1017F000DB84A4846F843C840984D783A7837883A3
:101800004A831E83F282C8829F82778250822B8213
:101810000782E481C281A2818281648147812C8117
:101820001181F880E080C980B4809F808C807A80AC
:101830006A805A804C803F803380298020801880C5
:1018400011800B8007800480028000006C18000863
:10185000000000200C000000FC00000878180008C0
:101860000C000020A4070000180100080000000080
:081870000000000000127A00E4
:040000050800015D91
:00000001FF
