:020000040800F2
:10000000900700205D0100086501000867010008F5
:10001000690100086B0100086D0100080000000084
:100020000000000000000000000000006F01000858
:10003000710100080000000073010008750100084C
:100040007701000877010008770100080000000030
:100050000000000077010008770100087701000820
:100060007701000800000000770100087701000810
:100070007701000800000000770100087701000800
:1000800077010008770100080000000077010008F0
:1000900077010008000000000000000000000000E0
:1000A00000000000000000000000000077010008D0
:1000B0007701000877010008770100087701000840
:1000C00000F002F800F03AF80AA090E8000C824430
:1000D0008344AAF10107DA4501D100F02FF8AFF20D
:1000E000090EBAE80F0013F0010F18BFFB1A43F016
:1000F00001031847742C0000942C0000103A24BF10
:1001000078C878C1FAD8520724BF30C830C144BF7C
:1001100004680C60704700000023002400250026BE
:10012000103A28BF78C1FBD8520728BF30C148BF5A
:100130000B6070471FB51FBD10B510BD00F031F842
:100140001146FFF7F7FF01F0C1F800F04FF803B4D4
:10015000FFF7F2FF03BC00F057F8000009488047A2
:1001600009480047FEE7FEE7FEE7FEE7FEE7FEE799
:10017000FEE7FEE7FEE7FEE704480549054A064BB1
:10018000704700008D0A0008C1000008900100209F
:1001900090070020900300209003002070477047D4
:1001A0007047754600F02CF8AE4605006946534688
:1001B00020F00700854618B020B5FFF7DDFFBDE849
:1001C00020404FF000064FF000074FF000084FF0BE
:1001D000000B21F00701AC46ACE8C009ACE8C0094F
:1001E000ACE8C009ACE8C0098D46704710B50446BC
:1001F000AFF300802046BDE81040FFF7A8BF000025
:10020000004870472C01002001491820ABBEFEE7D2
:10021000260002007047000046F2490001490860CC
:10022000704700000080084000200C49096841F038
:1002300002010A4A116000BF0849096A09B901218F
:1002400000E0002101F001010029F5D1034A11620B
:1002500011468869C0F30B00704700000080084019
:100260002DE9FC5F06460F4614469846DDF83090AF
:10027000019440F23F10A0EB080084B240F23F111D
:100280000198081A1FFA80F800254FF0000A00961E
:10029000A34600BF21E00BEB0500401C83B20BEB33
:1002A000050081B23A46009800F076FA2C2000F062
:1002B0003FFA4FF0000A0BE04FEA292000F052FA13
:1002C00009F0FF0000F04EFA0AF101001FFA80FA6F
:1002D000B81B5045F0DA681C85B2A8EB0400A842B0
:1002E000D9DABDE8FC9F70B506460C46154640F2CB
:1002F0003F10001B84B2234632462146304600F0B0
:100300004BFA2C2000F014FA281200F02BFAE8B275
:1003100000F028FA70BD2DE9F04104462612E7B23C
:1003200040F23F13EF220021084600F035FA2C205E
:1003300000F0FEF9002506E0B0B200F013FAB8B202
:1003400000F010FA6D1CB5F5963FF5D3BDE8F081CD
:1003500010B59A48006840F008009849086080216C
:10036000974800F04DFA012000F0E2F942F21071D6
:10037000944800F0D5FCCB2000F0DAF9392000F0E9
:10038000F1F92C2000F0EEF9002000F0EBF9342018
:1003900000F0E8F9022000F0E5F9CF2000F0C8F9FC
:1003A000002000F0DFF9C12000F0DCF9302000F07F
:1003B000D9F9E82000F0BCF9852000F0D3F900203D
:1003C00000F0D0F9782000F0CDF9EA2000F0B0F983
:1003D000002000F0C7F9002000F0C4F9ED2000F083
:1003E000A7F9642000F0BEF9032000F0BBF9122049
:1003F00000F0B8F9812000F0B5F9F72000F098F985
:10040000202000F0AFF9C02000F092F9232000F086
:10041000A9F9C12000F08CF9102000F0A3F9C52043
:1004200000F086F93E2000F09DF9282000F09AF9AE
:10043000C72000F07DF9862000F094F9362000F006
:1004400077F9482000F08EF93A2000F071F9552034
:1004500000F088F9B12000F06BF9002000F082F97B
:10046000182000F07FF9B62000F062F9082000F0B3
:1004700079F9822000F076F9272000F073F9F22054
:1004800000F056F9002000F06DF92A2000F050F934
:10049000002000F067F9002000F064F9002000F06F
:1004A00061F9EF2000F05EF92B2000F041F9002007
:1004B00000F058F9002000F055F9012000F052F941
:1004C0003F2000F04FF9262000F032F9012000F023
:1004D00049F9E02000F02CF90F2000F043F9312019
:1004E00000F040F92B2000F03DF90C2000F03AF923
:1004F0000E2000F037F9082000F034F94E2000F00B
:1005000031F9F12000F02EF9372000F02BF9072007
:1005100000F028F9102000F025F9032000F022F95E
:100520000E2000F01FF9092000F01CF9002000F057
:1005300019F9E12000F0FCF8002000F013F90E207A
:1005400000F010F9142000F00DF9032000F00AF972
:10055000112000F007F9072000F004F9312000F025
:1005600001F9C12000F0FEF8482000F0FBF8082057
:1005700000F0F8F80F2000F0F5F80C2000F0F2F889
:10058000312000F0EFF8362000F0ECF80F2000F0FA
:10059000E9F8112000F0CCF842F21071094800F09F
:1005A000BFFB292000F0C4F82C2000F0C1F8064859
:1005B000006840F080000449086010BD00000C4055
:1005C00000800C400080074000800A402DE9FF4F6A
:1005D00085B007461546129C0020049003900290B7
:1005E000824601902088A8427EDC6088A8427BDB9E
:1005F000002676E0A06830F83600A8426FDCA068DC
:1006000000EBC6004088A84269DBA06830F836A03D
:10061000A06800EBC6004068A5EB0A0101EB4101B0
:1006200030F811000390A06800EBC6004068A5EB0D
:100630000A0101EB410100EB4100408802904FF0BC
:10064000000B43E000200490029800F0FF0835E022
:10065000A06800EBC6004068A5EB0A0101EB410170
:1006600000EB4100808800EB0B02DDE9031000FB8A
:1006700001202169085C01904FF0000913E001207E
:1006800000FA09F00199084048B1069A02EBC80245
:10069000A2EB090291B2B8B2089AFFF724FE09F161
:1006A000010000F0FF09B9F1080FE8DB0498401CD5
:1006B000C0B20490A8F1010000F0FF08B8F1000FEB
:1006C000C6DC7F1C0BF1010000F0FF0B0398834593
:1006D000B8DBB8B209B0BDE8F08F05E0FFE7701CE9
:1006E00086B2A089B04285DCB8B2F3E72DE9F843C1
:1006F00005460F4614469846DDF82090002611E086
:1007000014F8016B202E00D1AD1D43463246394608
:100710002846CDF80090FFF759FF054614B1202E6A
:1007200000D06D1C20780028EAD1A8B2BDE8F8837B
:1007300010B504464021094800F054F80848006804
:1007400020F0080006490860204600F043F90448FC
:10075000006840F008000249086010BD00800A40AF
:1007600000000C4010B504464021094800F048F84C
:100770000848006820F0080006490860204600F09C
:1007800029F90448006840F008000249086010BDDB
:1007900000800A4000000C402DE9F04104460D465F
:1007A00016461F462A20FFF7C3FF2012FFF7DAFF85
:1007B000E0B2FFF7D7FF3012FFF7D4FFF0B2FFF738
:1007C000D1FF2B20FFF7B4FF2812FFF7CBFFE8B2D1
:1007D000FFF7C8FF3812FFF7C5FFF8B2FFF7C2FFF7
:1007E000BDE8F0810268054B984201D11F2300E06B
:1007F00000230B439A4302607047000000000C4046
:100800000268054B984201D11F2300E000239A4360
:100810000A4302607047000000000C400149086074
:10082000704700008800404210B502460C4BD86863
:1008300020F003001043D860586820F4706040EA4C
:1008400001205860074B1B6843B10123054C241D50
:1008500023600023034C883CC4F88C3010BD00009A
:10086000000002408800404238B50020009000BFE0
:10087000212000F02FF805460098401C00900098B9
:10088000B0F5C06F01D2002DF2D0212000F022F887
:1008900008B1012400E00024204638BD0149086069
:1008A00070470000880140420146044AD06820F0A9
:1008B000F00040EA0110D0607047000000000240E4
:1008C0000146034AD06820F440700843D060704766
:1008D0000000024010B5014601F0E003202B02D1D8
:1008E000074B1A6801E0074BDA6B01F01F04012384
:1008F000A34013400BB1012000E0002010BD000018
:100900000000024000800D400D49896821F003017C
:100910000B4A9160012802D002280ED106E0084956
:10092000896841F00101064A916007E0044989683D
:1009300041F00301024A916000E000BF00BF704730
:100940000000024038B50020009000BF2220FFF7D1
:10095000C1FF05460098401C00900098B0F5C06F9C
:1009600001D2002DF2D02220FFF7B4FF08B10124FC
:1009700000E00024204638BD29B1064AD26902436E
:10098000044BDA6104E0034AD2698243014BDA6125
:10099000704700000000024000B50748C06A40F000
:1009A00000700549C86200F00BF807200349086091
:1009B00002204860086100BD0000024000000A40BB
:1009C0000020034908604860086148614862704738
:1009D00000000A400849886000BF0749C96801F063
:1009E00010010029F9D100BF0349C96801F00101D4
:1009F0000029F9D07047000000000A4030B5204CB3
:100A0000E46804F00204022C01D11E4800E01D48F5
:100A10001B4CE46804F0010404B140080146184C82
:100A2000E46804F00404042C05D1154C6468C4F394
:100A30000324631C5943124CE468C4F3012424B119
:100A4000012C06D0022C13D10DE00E4C0E4D2C6063
:100A500013E00B4CE468C4F30314641CB1FBF4F220
:100A6000094C226009E04FF40044074D2C6004E07B
:100A700049F64044044D2C6000BF00BF30BD00006B
:100A80000000024000127A000800002000B50D4866
:100A90000D49C8610846C0680020C8600846406823
:100AA0000020486008468068002088600846006989
:100AB000002008610846406900204861FFF79EFF5A
:100AC00000BD000010000008000002400246104B6C
:100AD000586A104B9A4205D120F0FF00084340F0BD
:100AE000807012E00C4B9A4206D120F47F4040EA1D
:100AF000012040F0007008E0084B9A4205D120F434
:100B00007F0040EA014040F08060014B586270472E
:100B1000000002400000074000800740000008403D
:100B20000A46C16812B141F0010101E021F0010162
:100B3000C160704730B50C8804604C8844608C8874
:100B40008460CC880D892C444D892C448D892C449B
:100B5000CD896319C3604C8A0D8A04EB05148D8A14
:100B60002C44CD8A6219026530BD0021018041808C
:100B70008180C180018141818181C1810182418265
:100B80008182C18270470021C16001604160816043
:100B9000016241628162C162016341638163C16339
:100BA000016641668166C166016141618161C16121
:100BB000016741678167C167016441648164C16401
:100BC000016541658165C1657047000000B587B06A
:100BD0001B48FFF7D8FF03211948FFF777FF01A84B
:100BE000FFF7C3FF0920ADF806004FF6FF70ADF820
:100BF000080001A91248FFF79DFF0F20002817DB0E
:100C000000F01F02012191400E4A430942F82310CF
:100C100000BF00BF00BFBFF34F8F00BF00BF00BFCA
:100C200000BF00BF00BFBFF36F8F00BF00BF00BF9A
:100C300000BF01210248FFF773FF07B000BD0000AD
:100C40000080074080E100E010B501241A480068E8
:100C500040F01800184908600120FFF755FEFFF723
:100C600071FE01281BD107210220FFF7DDFD0120C5
:100C7000FFF7D4FD00BFFFF7F7FD0128FBD1FFF719
:100C8000F3FD01280BD1FFF709FE0020FFF70CFE52
:100C90004FF48070FFF714FEFFF7B0FE0024074802
:100CA000806B40F00700054988630846806B40F080
:100CB00038008863204610BD0080014000800D4050
:100CC00010B501211020FFF757FE01214805FFF75D
:100CD00053FE01210806FFF74FFE01214806FFF7EA
:100CE0004BFE0121C806FFF747FE01210805FFF76B
:100CF00043FE01214804FFF73FFE01218803FFF76F
:100D00003BFE0121C803FFF737FE01210804FFF76E
:100D100033FE10BD10B5FFF797FFFFF7D1FF10BDF1
:100D200008B5026892B2009200BF0268BDF80030B8
:100D3000D21A92B28A42F8DB08BD00002DE9F04FCA
:100D40008AB003460C4615464FF0000C0120A8401F
:100D500080B207900798401E80B2069001271CE0E1
:100D60000798C5B200BF6D100CEB050A06988245C6
:100D7000F9DC681E00EA0C0028441FFA80FCBC4520
:100D800000DC08E033F9178033F81C0023F8170063
:100D900023F81C8000BF781C87B206988742DFDBEF
:100DA000012609200990BFE04FF6FF7B0BEA460BB6
:100DB000CDF820B04FF00009A9E0DDF824B009FA21
:100DC0000BFB1FFA8BFBCDF814B0DFF86CE1DDF8FC
:100DD00014B00BF5807B3EF91BB0CDF810B0DDF8F8
:100DE00014B03EF81BB0CBF1000B0FFA8BFBCDF823
:100DF0000CB0DDF810B04FEA6B0BCDF810B0DDF899
:100E00000CB04FEA6B0BCDF80CB0494677E001EB24
:100E1000060B1FFA8BF233F912B0DDF810E00BFB72
:100E20000EF0801300F0010A0AEB600B0FFA8BF84A
:100E300034F912B0DDF80CE00BFB0EF0801300F07B
:100E4000010A0AEB600BA8EB0B0B0FFA8BF834F9D5
:100E500012B0DDF810E00BFB0EF0801300F0010A79
:100E60000AEB600B0FFA8BFBCDF800B033F912B030
:100E7000DDF80CE00BFB0EF0801300F0010A0AEB2A
:100E8000600EDDF800B0F3440FFA8BFBCDF800B034
:100E900033F911B0CDF808B034F911B0CDF804B081
:100EA000DDF808B04FEA6B0BCDF808B0DDF804B000
:100EB0004FEA6B0BCDF804B0DDF808B0C3440FFA6D
:100EC0008BFB23F811B0DDE900EBF3440FFA8BFB49
:100ED00024F811B0DDF808B0ABEB080B0FFA8BFB70
:100EE00023F812B0DDE900EBABEB0E0B0FFA8BFB36
:100EF00024F812B0DDF820B08B441FFA8BF1DDF836
:100F00001CB0594583DB09F1010B1FFA8BF9B14580
:100F1000FFF653AFDDF824B0ABF1010B1FFA8BFBEA
:100F2000CDF824B0089E00BF07988642FFF63CAF7C
:100F30000AB0BDE8F08F00002E17000808B58348FE
:100F4000002383A201210090AF20FFF7CFFB7F4851
:100F5000002381A20B210090B020FFF7C7FB7B4844
:100F6000002380A215210090B020FFF7BFFB774837
:100F700000237FA21F210090A720FFF7B7FB734833
:100F800000237EA229210090A020FFF7AFFB6F482D
:100F900000237DA233210090A020FFF7A7FB6B4820
:100FA00000237CA23D210090A020FFF79FFB674813
:100FB00000237BA247210090A020FFF797FB634806
:100FC00000237AA251210090A020FFF78FFB5F48F9
:100FD000002379A25B210090A020FFF787FB5B48EC
:100FE000002378A265210090A020FFF77FFB5748DF
:100FF000002377A26F210090A020FFF777FB5348D2
:10100000002376A279210090A020FFF76FFB4F48C4
:10101000002375A283210090A020FFF767FB4B48B7
:10102000002374A28D210090A020FFF75FFB4748AA
:10103000002373A297210090A020FFF757FB43489D
:10104000002372A2A1210090A020FFF74FFB3F4890
:10105000002371A2AB210090A020FFF747FB3B4883
:10106000002370A2B5210090A020FFF73FFB374876
:1010700000236FA2BF210090A020FFF737FB334869
:1010800000236EA2C9210090A020FFF72FFB2F485C
:1010900000236DA2D3210090A020FFF727FB2B484F
:1010A00000236CA2DD210090A020FFF71FFB274842
:1010B00000236BA2E7210090A020FFF717FB234835
:1010C00000236AA2F1210090A020FFF70FFB1F4828
:1010D000002369A2FB210090A020FFF707FB1B481B
:1010E000002368A240F205110090A020FFF7FEFA4D
:1010F0001648002366A240F20F110090A020FFF7CF
:10110000F5FA1248002365A240F219110090A020C0
:10111000FFF7ECFA0D48002363A240F22311009080
:10112000A020FFF7E3FA0948002362A240F22D1144
:101130000090A020FFF7DAFA0448002360A240F2F2
:1011400037110090A020FFF7D1FA08BDF42600085F
:10115000302D3331322E35003331322E352D3632AB
:10116000350000003632352D3933372E350000007A
:101170003933372E352D31323530000031323530AC
:101180002D313536322E3500313536322E352D3172
:1011900038373500313837352D323138372E350074
:1011A000323138372E352D3235303000323530304F
:1011B0002D323831322E3500323831322E352D3342
:1011C00031323500333132352D333433372E35005B
:1011D000333433372E352D33373530003337353010
:1011E0002D343036322E3500343036322E352D3413
:1011F00033373500343337352D343638372E350014
:10120000343638372E352D353030300035303030EB
:101210002D353331322E3500353331322E352D35E3
:1012200036323500353632352D353933372E3500E7
:10123000353933372E352D363235300036323530AC
:101240002D363536322E3500363536322E352D36A2
:1012500038373500363837352D373138372E3500A9
:10126000373138372E352D3735303000373530307F
:101270002D373831322E3500373831322E352D3872
:1012800031323500383132352D383433372E350090
:10129000383433372E352D38373530003837353040
:1012A0002D393036322E3500393036322E352D3943
:1012B00033373500393337352D393638372E350049
:1012C000393638372E352D31306B000008B5FFF731
:1012D00021FDFFF77BFC00F0DDF9FEF79DFFFFF736
:1012E0005BFBFFF735F84FF6FF70FFF714F8FFF7D9
:1012F00025FE8AE0002422E0002508E0FEF794FFA6
:1013000042490968084441490860681CC5B2022D79
:10131000F4DB3E480068400800B2A0F2E4708010A0
:101320003B4921F8140000203A4921F814003749BC
:10133000086014213848FFF7F3FC601CC4B2402C4D
:10134000DADB062233493248FFF7F8FC00245AE082
:101350002F4830F9140040432E4931F914102D4A1A
:1013600032F9142001FB020000B2294921F81400CF
:10137000084630F91400002808DB31F9140000F0A9
:10138000C1F900B2224921F8140003E000202049ED
:1013900021F814002148005D1D4931F914108842DC
:1013A00010DA0020009004EB8400092505EB4003CF
:1013B000174830F8140082B204EB8400410000208A
:1013C000FEF74EFF1548005D114931F914108842AF
:1013D00012DD4FF6FF7004EB8405092606EB45038A
:1013E0000E4D00902A5D04EB84056900084D35F828
:1013F0001450A8B2FEF734FF054810F8140007494E
:101400000855601CC4B2202CA2DB73E7000000204A
:101410008C0000200C000020008007400C01002000
:1014200010B500221021044800F05EF800221021BF
:10143000014800F04FF810BD00000C4070B50B469D
:101440000021012405E04D1CE9B24FF6FF7505EAC5
:1014500044049C42F7DB84684E000325B540AC434E
:10146000846032B1012A0BD0022A10D0032A1CD189
:1014700014E084684E000025B5402C43846014E0DD
:1014800084684E000125B5402C4384600DE08468DB
:101490004E000225B5402C43846006E084684E006F
:1014A0000325B5402C43846000BF00BF70BD000021
:1014B00010B54021054800F0F5F88021034800F000
:1014C000F1F88021024800F0EDF810BD00800A40DC
:1014D00000800C40012A03D1C3680B43C36002E0C3
:1014E000C3688B43C3607047012A03D143680B4331
:1014F000436002E043688B4343607047012A03D195
:1015000043690B43436102E043698B434361704786
:10151000012A04D1436943EA0143436103E043697B
:1015200023EA014343617047012A03D103690B4356
:10153000036102E003698B4303617047012A04D110
:10154000036943EA0143036103E0036923EA0143BA
:101550000361704770B50B460021012405E04D1C66
:10156000E9B24FF6FF7505EA44049C42F7DB846953
:101570004E000325B540AC43846132B1012A0BD043
:10158000022A10D0032A1CD114E084694E000025E1
:10159000B5402C43846114E084694E000125B540B8
:1015A0002C4384610DE084694E000225B5402C4334
:1015B000846106E084694E000325B5402C438461B4
:1015C00000BF00BF70BD000010B5022204213048EA
:1015D000FFF734FF002204212D48FFF785FF012289
:1015E00004212B48FFF776FF002204212848FFF74B
:1015F0008FFF002204212648FFF780FF03220421E9
:101600002348FFF7A7FF022240212148FFF716FFDA
:10161000012240211E48FFF767FF012240211C489C
:10162000FFF758FF002240211948FFF771FF002201
:1016300040211748FFF762FF032240211448FFF7BB
:1016400089FF022220211248FFF7F8FE0122202103
:101650000F48FFF749FF012220210D48FFF73AFF0D
:10166000002220210A48FFF753FF002220210848CA
:10167000FFF744FF032220210548FFF76BFF0821F5
:10168000034800F00FF808210148FFF7B9F810BD32
:1016900000000C4010B5FFF70BFFFFF795FFFFF7B9
:1016A000BFFE10BD70B504460D46012229462046F6
:1016B000FFF71AFF012229462046FFF70BFF002201
:1016C00029462046FFF7BAFE002229462046FFF7AA
:1016D0001FFF002229462046FFF710FF022229465D
:1016E0002046FFF737FF002229462046FFF726FF56
:1016F000002229462046FFF717FF29462046FFF71C
:1017000071F870BD02464FF08041002000E0891062
:101710009142FCD808E04318934203D8131A5A1A8E
:1017200000EB4100401089100029F4D170470000FF
:10173000C90092015B022403ED03B6047E0547064F
:101740001007D907A1086A09320AFB0AC30B8B0CE0
:10175000530D1B0EE30EAB0F721039110012C7129E
:101760008E1355141B15E115A7166D173318F818AD
:10177000BD19821A461B0B1CCF1C931D561E191F28
:10178000DC1F9F2061212322E422A6236724272532
:10179000E725A72667272628E528A329612A1E2BE7
:1017A000DB2B982C542D102ECC2E862F4130FB3065
:1017B000B4316D322633DE3396344D350336B936C7
:1017C0006F372438D8388C393F3AF23AA43B563C2C
:1017D000073DB73D673E163FC53F73402041CD41B1
:1017E00079422543D0437A442345CC4574461C476F
:1017F000C34769480E49B349574AFA4A9D4B3F4C83
:10180000E04C804D204EBF4E5D4FFA4F9750335104
:10181000CE51685201539A533254C9545F55F4550E
:1018200089561D57B0574258D3586359F359815AB6
:101830000F5B9C5B285CB35C3D5DC65D4F5ED65E16
:101840005D5FE25F6760EB606E61F0617162F16243
:101850007063EE636B64E7646265DD655666CE6651
:101860004567BC673168A56819698B69FC696C6A52
:10187000DB6A4A6BB76B236C8E6CF86C616DC96D5B
:10188000306E956EFA6E5E6FC06F22708270E1707E
:1018900040719D71F9715472AE7206735E73B573C7
:1018A0000A745E74B17403755475A475F37540764B
:1018B0008D76D87622776B77B377F9773F78837810
:1018C000C678087949798979C779047A417A7C7A26
:1018D000B57AEE7A257B5C7B917BC47BF77B297C98
:1018E000597C887CB67CE27C0E7D387D617D897D6B
:1018F000B07DD57DF97D1C7E3E7E5E7E7E7E9C7EAB
:10190000B97ED47EEF7E087F207F377F4C7F617F5A
:10191000747F867F967FA67FB47FC17FCD7FD77F80
:10192000E07FE87FEF7FF57FF97FFC7FFE7FFF7F21
:10193000FE7FFC7FF97FF57FEF7FE87FE07FD77F39
:10194000CD7FC17FB47FA67F967F867F747F617FC6
:101950004C7F377F207F087FEF7ED47EB97E9C7ED0
:101960007E7E5E7E3E7E1C7EF97DD57DB07D897D4E
:10197000617D387D0E7DE27CB67C887C597C297C3B
:10198000F77BC47B917B5C7B257BEE7AB57A7C7A96
:10199000417A047AC779897949790879C678837850
:1019A0003F78F977B3776B772277D8768D76407664
:1019B000F375A47554750375B1745E740A74B573C8
:1019C0005E730673AE725472F9719D714071E1706D
:1019D00082702270C06F5E6FFA6E956E306EC96D48
:1019E000616DF86C8E6C236CB76B4A6BDB6A6C6A4A
:1019F000FC698B691969A5683168BC674567CE6663
:101A00005666DD656265E7646B64EE637063F16280
:101A10007162F0616E61EB606760E25F5D5FD65E90
:101A20004F5EC65D3D5DB35C285C9C5B0F5B815A7D
:101A3000F3596359D3584258B0571D578956F45536
:101A40005F55C95432549A5301536852CE513351A1
:101A50009750FA4F5D4FBF4E204E804DE04C3F4CAB
:101A60009D4BFA4A574AB3490E496948C3471C4738
:101A70007446CC4523457A44D04325437942CD4131
:101A800020417340C53F163F673EB73D073D563C7A
:101A9000A43BF23A3F3A8C39D83824386F37B936FC
:101AA00003364D359634DE3326336D32B431FB3098
:101AB0004130862FCC2E102E542D982CDB2B1E2B34
:101AC000612AA329E52826286727A726E7252725B1
:101AD0006724A623E422232261219F20DC1F191FF3
:101AE000561E931DCF1C0B1C461B821ABD19F818DD
:101AF00033186D17A716E1151B1555148E13C71251
:101B0000001239117210AB0FE30E1B0E530D8B0C2C
:101B1000C30BFB0A320A6A09A108D9071007470656
:101B20007E05B604ED0324035B029201C9000000A8
:101B300037FF6EFEA5FDDCFC13FC4AFB82FAB9F907
:101B4000F0F827F85FF796F6CEF505F53DF475F356
:101B5000ADF2E5F11DF155F08EEFC7EE00EE39ED77
:101B600072ECABEBE5EA1FEA59E993E8CDE708E749
:101B700043E67EE5BAE4F5E331E36DE2AAE1E7E0AE
:101B800024E061DF9FDEDDDD1CDD5ADC99DBD9DA84
:101B900019DA59D999D8DAD71BD75DD69FD5E2D4AF
:101BA00025D468D3ACD2F0D134D17AD0BFCF05CF11
:101BB0004CCE93CDDACC22CC6ACBB3CAFDC947C98F
:101BC00091C8DCC728C774C6C1C50EC55CC4AAC30A
:101BD000F9C249C299C1EAC03BC08DBFE0BE33BE65
:101BE00087BDDBBC30BC86BBDDBA34BA8CB9E4B887
:101BF0003DB897B7F2B64DB6A9B506B563B4C1B353
:101C000020B380B2E0B141B1A3B006B069AFCDAEB0
:101C100032AE98ADFFAC66ACCEAB37ABA1AA0CAA86
:101C200077A9E3A850A8BEA72DA79DA60DA67FA5BE
:101C3000F1A464A4D8A34DA3C3A23AA2B1A12AA13E
:101C4000A3A01EA0999F159F929E109E8F9D0F9DF1
:101C5000909C129C959B199B9E9A239AAA993299C3
:101C6000BB984498CF975B97E796759604969495A2
:101C70002595B6944994DD93729308939F92379279
:101C8000D0916B910691A2904090DE8F7E8F1F8F36
:101C9000C08E638E078EAC8D528DFA8CA28C4B8CCD
:101CA000F68BA28B4F8BFD8AAC8A5C8A0D8AC08929
:101CB00073892889DE8895884D880788C1877D8744
:101CC0003A87F886B78677863986FC85BF8584850E
:101CD0004B851285DB84A4846F843C840984D7837C
:101CE000A78378834A831E83F282C8829F82778289
:101CF00050822B820782E481C281A2818281648129
:101D000047812C811181F880E080C980B4809F8058
:101D10008C807A806A805A804C803F803380298012
:101D20002080188011800B800780048002800000D2
:101D30000000C90092015B022403ED03B6047E0596
:101D400047061007D907A1086A09320AFB0AC30B24
:101D50008B0C530D1B0EE30EAB0F721039110012DA
:101D6000C7128E1355141B15E115A7166D173318DE
:101D7000F818BD19821A461B0B1CCF1C931D561E4A
:101D8000191FDC1F9F2061212322E422A623672440
:101D90002725E725A72667272628E528A329612ADE
:101DA0001E2BDB2B982C542D102ECC2E862F413041
:101DB000FB30B4316D322633DE3396344D35033685
:101DC000B9366F372438D8388C393F3AF23AA43BC9
:101DD000563C073DB73D673E163FC53F7340204127
:101DE000CD4179422543D0437A442345CC457446BE
:101DF0001C47C34769480E49B349574AFA4A9D4BA5
:101E00003F4CE04C804D204EBF4E5D4FFA4F9750F7
:101E10003351CE51685201539A533254C9545F55CD
:101E2000F45589561D57B0574258D3586359F35942
:101E3000815A0F5B9C5B285CB35C3D5DC65D4F5E69
:101E4000D65E5D5FE25F6760EB606E61F06171625C
:101E5000F1627063EE636B64E7646265DD6556662C
:101E6000CE664567BC673168A56819698B69FC69EE
:101E70006C6ADB6A4A6BB76B236C8E6CF86C616DB5
:101E8000C96D306E956EFA6E5E6FC06F2270827093
:101E9000E17040719D71F9715472AE7206735E7398
:101EA000B5730A745E74B17403755475A475F375D3
:101EB00040768D76D87622776B77B377F9773F784F
:101EC0008378C678087949798979C779047A417A1B
:101ED0007C7AB57AEE7A257B5C7B917BC47BF77B41
:101EE000297C597C887CB67CE27C0E7D387D617DC6
:101EF000897DB07DD57DF97D1C7E3E7E5E7E7E7EB9
:101F00009C7EB97ED47EEF7E087F207F377F4C7F1A
:101F1000617F747F867F967FA67FB47FC17FCD7FF0
:101F2000D77FE07FE87FEF7FF57FF97FFC7FFE7F43
:101F3000FF7FFE7FFC7FF97FF57FEF7FE87FE07F0B
:101F4000D77FCD7FC17FB47FA67F967F867F747F4A
:101F5000617F4C7F377F207F087FEF7ED47EB97E04
:101F60009C7E7E7E5E7E3E7E1C7EF97DD57DB07D34
:101F7000897D617D387D0E7DE27CB67C887C597CD4
:101F8000297CF77BC47B917B5C7B257BEE7AB57AE1
:101F90007C7A417A047AC779897949790879C6784F
:101FA00083783F78F977B3776B772277D8768D7619
:101FB0004076F375A47554750375B1745E740A7434
:101FC000B5735E730673AE725472F9719D71407190
:101FD000E17082702270C06F5E6FFA6E956E306E27
:101FE000C96D616DF86C8E6C236CB76B4A6BDB6AE4
:101FF0006C6AFC698B691969A5683168BC674567BB
:10200000CE665666DD656265E7646B64EE63706399
:10201000F1627162F0616E61EB606760E25F5D5F6B
:10202000D65E4F5EC65D3D5DB35C285C9C5B0F5B1E
:10203000815AF3596359D3584258B0571D5789569E
:10204000F4555F55C95432549A5301536852CE51D6
:1020500033519750FA4F5D4FBF4E204E804DE04CAC
:102060003F4C9D4BFA4A574AB3490E496948C3470A
:102070001C477446CC4523457A44D04325437942D6
:10208000CD4120417340C53F163F673EB73D073DF8
:10209000563CA43BF23A3F3A8C39D83824386F3753
:1020A000B93603364D359634DE3326336D32B431CE
:1020B000FB304130862FCC2E102E542D982CDB2B4C
:1020C0001E2B612AA329E52826286727A726E725AE
:1020D00027256724A623E422232261219F20DC1FD9
:1020E000191F561E931DCF1C0B1C461B821ABD19AF
:1020F000F81833186D17A716E1151B1555148E1314
:10210000C712001239117210AB0FE30E1B0E530DE4
:102110008B0CC30BFB0A320A6A09A108D907100706
:1021200047067E05B604ED0324035B029201C90055
:10213000000037FF6EFEA5FDDCFC13FC4AFB82FAB3
:10214000B9F9F0F827F85FF796F6CEF505F53DF406
:1021500075F3ADF2E5F11DF155F08EEFC7EE00EE2F
:1021600039ED72ECABEBE5EA1FEA59E993E8CDE70C
:1021700008E743E67EE5BAE4F5E331E36DE2AAE180
:10218000E7E024E061DF9FDEDDDD1CDD5ADC99DB6A
:10219000D9DA19DA59D999D8DAD71BD75DD69FD5AC
:1021A000E2D425D468D3ACD2F0D134D17AD0BFCF29
:1021B00005CF4CCE93CDDACC22CC6ACBB3CAFDC9C5
:1021C00047C991C8DCC728C774C6C1C50EC55CC461
:1021D000AAC3F9C249C299C1EAC03BC08DBFE0BEE3
:1021E00033BE87BDDBBC30BC86BBDDBA34BA8CB92C
:1021F000E4B83DB897B7F2B64DB6A9B506B563B425
:10220000C1B320B380B2E0B141B1A3B006B069AFB1
:10221000CDAE32AE98ADFFAC66ACCEAB37ABA1AABB
:102220000CAA77A9E3A850A8BEA72DA79DA60DA626
:102230007FA5F1A464A4D8A34DA3C3A23AA2B1A1DF
:102240002AA1A3A01EA0999F159F929E109E8F9DCC
:102250000F9D909C129C959B199B9E9A239AAA99DC
:102260003299BB984498CF975B97E79675960496FA
:1022700094952595B6944994DD93729308939F9213
:102280003792D0916B910691A2904090DE8F7E8F15
:102290001F8FC08E638E078EAC8D528DFA8CA28CF0
:1022A0004B8CF68BA28B4F8BFD8AAC8A5C8A0D8A95
:1022B000C08973892889DE8895884D880788C187F9
:1022C0007D873A87F886B78677863986FC85BF850D
:1022D00084854B851285DB84A4846F843C840984C7
:1022E000D783A78378834A831E83F282C8829F8222
:1022F000778250822B820782E481C281A28182810F
:10230000648147812C811181F880E080C980B4808C
:102310009F808C807A806A805A804C803F80338096
:1023200029802080188011800B8007800480028023
:10233000000000000101010100001818F8FC06026D
:102340000206FCF8070F181010180F07080C06FEFD
:10235000FE0000001010101F1F1010100000C0F829
:102360003E063EF8C00000181F07020202020207E4
:102370001F18F0FC0C060202020204030F0C1810D6
:1023800010101008FEFE42424242021F1F101010A1
:102390001010FEFE42424242421F1F000000000099
:1023A000FEFE404040404040FEFE1F1F0000000077
:1023B00000001F1FFEFE1F1F000000FEFE08101081
:1023C0001F0FFEFE00000000001F1F101010101055
:1023D000FEFE063CF0C00000FEFE1F1F00000003D2
:1023E0000F181F1FF0FC0C06020202060CFCF00383
:1023F0000F0C18101010180C0F03FEFE828282C6FC
:102400007C38001F1F000000030F1C10387C66C2C0
:10241000C2860408181010190F07020202FEFE02FD
:1024200002020000001F1F000000FEFE000000006E
:102430000000FEFE070F1810101010180F0730F0E4
:10244000C0000000C0F0300001071E181E07010088
:10245000FEFE424242FE9C001F1F101010180F0784
:10246000FEFE4040E0B81E061F1F000000071F18B8
:10247000FEFE0E7CE0000000E03C0EFEFE1F1F0092
:1024800000010F180F0100001F1FF0F0101010F0D6
:10249000E01F1F1111111F0EF0F01010101F1F0070
:1024A00000000000F0F0101010F0F000F01E171007
:1024B0001010101F1FF0C0E0301010F0E0070F19CF
:1024C00011111109F0F00080E0F0F01F1F0E030061
:1024D0001F1FF0F30784E4F7F31F1F0E03001F1FF5
:1024E000F0F00000C0F0301F1F0101061E180000B0
:1024F00000F01010F0F010180F0100001F1FF0F096
:10250000F0C0000000C0F0F0F01F1F00031F180F04
:1025100003001F1FF0F0000000F0F01F1F01010179
:102520001F1FC0E030101030E0C0070F1810101847
:102530000F07F0F020101030E0C0FFFF0810101857
:102540000F07101010F0F01010100000001F1F00F7
:102550000000F0F0000000F0F0000000F0F01F1F9D
:102560001010101F1F1010101F1FF0F080808080AF
:102570000000F0F01F1F1010100F0F001F1F0400AD
:1025800002000000020002000800080002000C0027
:10259000080002001C000B0002002C0009000200D1
:1025A00042000700020054000700020062000A0017
:1025B0000200700002000200840005000200880092
:1025C0000700020092000A000200A0000B000200B7
:1025D000B40009000200CA0007000200DC00080085
:1025E0000200EA000A000200FA00090002000E01DF
:1025F0000800020020010800020030010D00020066
:102600004001070002005A010500020068010A00AB
:102610000200720107000200860107000200940117
:1026200007000200A20107000200B001080002003A
:10263000BE010B000200CE0107000200E401080009
:102640000200F20108000200020208000200120269
:102650000C00020022020A0002003A022D002E00A5
:102660007E250008300031008A2500084100410025
:1026700096250008430043009C25000845004600BD
:10268000A225000848004A00AE2500084C004C0076
:10269000C02500084E004F00C62500085200550016
:1026A000D225000876007600EA250008C200C200A4
:1026B000F0250008CA00CA00F6250008CC00CC00AE
:1026C000FC250008E200E50002260008E800EE0014
:1026D0001A260008F000F00044260008F200F2007C
:1026E0004A260008F800F80050260008FB00FB000E
:1026F000562600082D00FB00020000005C260008A2
:10270000130000003023000800000000808080805B
:1027100007070707F8FEFFFF0707FFFEFEF8FFFFAA
:10272000FFFF0000FFFFFFFF000307070707070782
:10273000030118181CFCFEFFFF000000FFFFFFFF55
:10274000000000070707077C7E7F0787FFFFFEFC6E
:1027500000C0F0FEFF3F0F0300070707070707074A
:1027600007073C3E3FBF8787FFFFFE7CF8F8F8FB7A
:102770000303FFFFFEFE0103070707070707030127
:102780000000E0FCFF1FFFFFFFFF00F8FFFFF7F076
:10279000F0FFFFFFFFF00000000000000707070741
:1027A00000FFFFFFFFC7E7E7E7C787F3F3F3F30097
:1027B00000FFFFFFFF01030707070707070301F8F3
:1027C000FEFFFF87C7DFDF9E1CFFFFFFFF0101FF4A
:1027D000FFFFFF00030707070707070301070707B6
:1027E00007FFFFFF3F0000F0FFFFFF0700000607A5
:1027F00007070000007CFEFFFF8787FFFFFE7CFCD1
:10280000FEFFFF0303FFFFFEFC01030707070707A7
:10281000070301FCFEFFFF0707FFFFFEFCC7CFDF3A
:10282000DF1C0CFFFFFFFF01030707070707030378
:102830000080808080878787870707070700C0FFA1
:10284000FFFF07FFFFFFC00080FFFFFFE3E0E3FFA4
:10285000FFFF800707070700000007070707FFFFC4
:10286000FFFFC7C7FFFF7E7CFFFFFFFF0303FFFFE4
:10287000FFFE07070707070707070701FFFFFFFF1F
:102880000F0F0F0FFFFFFFFF0000000007070707F4
:1028900000000000000000FFFFFFFF0F0F0FFFFF11
:1028A000FFFF0080E0FFFFFFBF83808080FFFFFF0E
:1028B000FF803F3F3F3F070707070707073F3F3FAF
:1028C0003FFFFFFFFF8F8F8F00FFFFFFFF8787878F
:1028D00080070707070707070701FFFFFFFF000043
:1028E000FFFFFFFF0000FFFFFFFF0100F8FDFDFFFE
:1028F0000707FFFFFFFF0707FFFDFDF800040707BD
:10290000070700000707070700000707070704FF7E
:10291000FFFFFF0000FEFFFFFF01FFFFFFFF0707B4
:10292000FFFDFDF80007070707000003070707047E
:1029300000FFFFFFFF0F0F0FFFFFFFFF00FFFFFF75
:10294000FF000000FFFFFFFF07070707010000006F
:1029500007070707FFFFFFFF8080FFFFFFFFFFFF65
:10296000FFFF0707FFFFFFFF070707070000070735
:102970000707F8FEFEFF0707FFFEFEF8FFFFFFFF59
:102980000000FFFFFFFF0003030707070703030023
:10299000FFFFFFFF0707FFFFFEFCFFFFFFFF07072B
:1029A00007070303070707070000000000000F0FD9
:1029B0000FFFFFFFFF0F0F0F000000FFFFFFFF00E3
:1029C000000000000007070707000000073FFFFFA7
:1029D000F8C0F8FFFF3F0780F0FFFF7F077FFFFF92
:1029E000F0800707070700000007070707FFFFFF42
:1029F000FF808080808000000000FFFFFFFFFFFF5E
:102A0000FFFF030303FFFFFFFE0000FFFFFFFF07C1
:102A10000707070707070707070300000707070758
:102A2000E0F0F8383838F8F8F0E0F1F9FD0C0E066F
:102A3000FFFFFFFF03070707070307070707E0F08C
:102A4000F8F83838F8F0F0C0FFFFFFFF0707F7F796
:102A5000F7F701030307070707070300E0F0F8F89B
:102A60003838F8F8F0E0E1E1E1E10C0CFFFFFFF3AA
:102A700001030707070707070301F8F8F8F8000044
:102A8000F0F8F8F8F8FFFFFFFFF03F03FFFFFFFF4C
:102A90000707070703000007070707F8F8F8F8001B
:102AA00000F8F8F8F808FFFFFFFF0E0EFFFBFBF140
:102AB0000007070707000003070707040000F8F8EE
:102AC000F8F83838F8F8F8F80000FFFFFFFF0000CA
:102AD000FFFFFFFF070707070703000007070707B8
:102AE000F8F8F8F8F8F00000F8F8F8F8F8F8FFFF50
:102AF000FFFF07FFFCFCFF07FFFFFFFF07070707BC
:102B000000010707010007070707F8F8F8F80000B9
:102B100000F8F8F8F8FFFFFFFF1E1E1EFFFFFFFF83
:102B20000707070700000007070707C0F0F8F83895
:102B300038F8F0F0E0FFFFFFFF0000FFFFFFFF01AC
:102B4000030707070707070300F8F8F8F83038F815
:102B5000F8F8F0FFFFFFFF0000FFFFFFFF1F1F1F40
:102B60001F030707070703E0F0F8F8383838F0F0DC
:102B7000E0FFFFFFFF000000F1F1F100030707078E
:102B80000707030300383838F8F8F8F83838380001
:102B90000000FFFFFFFF000000000000070707071D
:102BA00000000018F8F8F8000000F8F8F818000322
:102BB0003FFFFF80FFFFFF1F00001C1C1F1F1F1F88
:102BC0000F070000F8F8F8F80000F8F8F8F83F7F71
:102BD0007F7F7030FFFFFFFF00000000000007074D
:102BE00007070400030000000A0003000C000700B0
:102BF00003002A00090003003F000A0003005A00F6
:102C00000B00030078000A00030099000A0003008B
:102C1000B70008000300D5000A000300ED000A0019
:102C200003000B010400030029010B000300350120
:102C30000A00030056010800030074010F0003009E
:102C40008C0108000300B90112000300D1010B0040
:102C5000030007020C00030028020A0003004C02D4
:102C60000A0003006A020A00030088020A00030047
:102C7000A6020B000300C40211000300E5020A00D3
:102C8000030018030A00030036030A00030054037C
:102C90000B00030072030B00030093030C000300FE
:102CA000B4030E000300D8030B00030002040A0063
:102CB000030023040A00030041040A0003005F0428
:102CC0000A0003007D040B0003009B040A000300BC
:102CD000BC0400002E002E00E22B000830003A0059
:102CE000E82B0008C000C0002A2C0008C200C60063
:102CF000302C0008CA00CB004E2C0008CD00CE00BE
:102D00005A2C0008D000D000662C0008D200D20057
:102D10006C2C0008D500D500722C0008DB00DB000D
:102D2000782C0008E000E0007E2C0008E500E500BB
:102D3000842C0008E700E8008A2C0008EA00EE0076
:102D4000962C0008F000F300B42C0008F700F70000
:102D5000CC2C00082E00F70002000000D42C000844
:102D60001000000008270008882D0008000000203F
:102D70000C000000FC000008942D00080C0000204E
:102D80008407000018010008000000000000000097
:042D900000127A00B3
:040000050800015D91
:00000001FF
