:020000040800F2
:10000000B00900205D0100086501000867010008D3
:10001000690100086B0100086D0100080000000084
:100020000000000000000000000000006F01000858
:10003000710100080000000073010008750100084C
:100040007701000877010008770100080000000030
:100050000000000077010008770100087701000820
:100060007701000800000000770100087701000810
:100070007701000800000000770100087701000800
:1000800077010008770100080000000077010008F0
:1000900077010008000000000000000000000000E0
:1000A00000000000000000000000000077010008D0
:1000B0007701000877010008770100087701000840
:1000C00000F002F800F03AF80AA090E8000C824430
:1000D0008344AAF10107DA4501D100F02FF8AFF20D
:1000E000090EBAE80F0013F0010F18BFFB1A43F016
:1000F000010318474818000068180000103A24BF90
:1001000078C878C1FAD8520724BF30C830C144BF7C
:1001100004680C60704700000023002400250026BE
:10012000103A28BF78C1FBD8520728BF30C148BF5A
:100130000B6070471FB51FBD10B510BD00F031F842
:100140001146FFF7F7FF00F0DDFE00F04FF803B4B3
:10015000FFF7F2FF03BC00F057F8000009488047A2
:1001600009480047FEE7FEE7FEE7FEE7FEE7FEE799
:10017000FEE7FEE7FEE7FEE704480549054A064BB1
:1001800070470000F5080008C1000008B003002017
:10019000B0090020B0050020B0050020704770476E
:1001A0007047754600F02CF8AE4605006946534688
:1001B00020F00700854618B020B5FFF7DDFFBDE849
:1001C00020404FF000064FF000074FF000084FF0BE
:1001D000000B21F00701AC46ACE8C009ACE8C0094F
:1001E000ACE8C009ACE8C0098D46704710B50446BC
:1001F000AFF300802046BDE81040FFF7A8BF000025
:10020000004870474C03002001491820ABBEFEE7B0
:10021000260002007047000046F2490001490860CC
:10022000704700000080084000200C49096841F038
:1002300002010A4A116000BF0849096A09B901218F
:1002400000E0002101F001010029F5D1034A11620B
:1002500011468869C0F30B00704700000080084019
:100260002DE9FC5F06460F4614469846DDF83090AF
:10027000019440F23F10A0EB080084B240F23F111D
:100280000198081A1FFA80F800254FF0000A00961E
:10029000A34600BF21E00BEB0500401C83B20BEB33
:1002A000050081B23A46009800F0AAF92C2000F02F
:1002B00073F94FF0000A0BE04FEA292000F086F9AD
:1002C00009F0FF0000F082F90AF101001FFA80FA3C
:1002D000B81B5045F0DA681C85B2A8EB0400A842B0
:1002E000D9DABDE8FC9F2DE9F04104462612E7B2B9
:1002F00040F23F13EF220021084600F081F92C2044
:1003000000F04AF9002506E0B0B200F05FF9B8B29B
:1003100000F05CF96D1CB5F5963FF5D3BDE8F081B2
:1003200010B59948006840F008009749086080219E
:10033000964800F099F9012000F02EF964219448C4
:1003400000F04CFCCB2000F027F9392000F03EF9FA
:100350002C2000F03BF9002000F038F9342000F0A8
:1003600035F9022000F032F9CF2000F015F9002015
:1003700000F02CF9C12000F029F9302000F026F916
:10038000E82000F009F9852000F020F9002000F0B5
:100390001DF9782000F01AF9EA2000F0FDF800209D
:1003A00000F014F9002000F011F9ED2000F0F4F84D
:1003B000642000F00BF9032000F008F9122000F08F
:1003C00005F9812000F002F9F72000F0E5F820207F
:1003D00000F0FCF8C02000F0DFF8232000F0F6F871
:1003E000C12000F0D9F8102000F0F0F8C52000F08E
:1003F000D3F83E2000F0EAF8282000F0E7F8C72004
:1004000000F0CAF8862000F0E1F8362000F0C4F8C9
:10041000482000F0DBF83A2000F0BEF8552000F04C
:10042000D5F8B12000F0B8F8002000F0CFF818207F
:1004300000F0CCF8B62000F0AFF8082000F0C6F8C5
:10044000822000F0C3F8272000F0C0F8F22000F06E
:10045000A3F8002000F0BAF82A2000F09DF8002050
:1004600000F0B4F8002000F0B1F8002000F0AEF881
:10047000EF2000F0ABF82B2000F08EF8002000F009
:10048000A5F8002000F0A2F8012000F09FF83F201E
:1004900000F09CF8262000F07FF8012000F096F88C
:1004A000E02000F079F80F2000F090F8312000F003
:1004B0008DF82B2000F08AF80C2000F087F80E2031
:1004C00000F084F8082000F081F84E2000F07EF85B
:1004D000F12000F07BF8372000F078F8072000F0DA
:1004E00075F8102000F072F8032000F06FF80E206D
:1004F00000F06CF8092000F069F8002000F066F8C0
:10050000E12000F049F8002000F060F80E2000F033
:100510005DF8142000F05AF8032000F057F811207D
:1005200000F054F8072000F051F8312000F04EF8A8
:10053000C12000F04BF8482000F048F8082000F0F7
:1005400045F80F2000F042F80C2000F03FF8312071
:1005500000F03CF8362000F039F80F2000F036F8B3
:10056000112000F019F86421094800F037FB292018
:1005700000F012F82C2000F00FF80648006840F058
:1005800080000449086010BD00000C4000800C4051
:100590000080074000800A4010B504464021094809
:1005A00000F054F80848006820F008000649086088
:1005B000204600F043F90448006840F00800024972
:1005C000086010BD00800A4000000C4010B50446D1
:1005D0004021094800F048F80848006820F0080069
:1005E00006490860204600F029F90448006840F0F8
:1005F00008000249086010BD00800A4000000C405D
:100600002DE9F04104460D4616461F462A20FFF705
:10061000C3FF2012FFF7DAFFE0B2FFF7D7FF301277
:10062000FFF7D4FFF0B2FFF7D1FF2B20FFF7B4FFA5
:100630002812FFF7CBFFE8B2FFF7C8FF3812FFF729
:10064000C5FFF8B2FFF7C2FFBDE8F0810268054BB5
:10065000984201D11F2300E000230B439A4302601C
:100660007047000000000C400268054B984201D121
:100670001F2300E000239A430A43026070470000F2
:1006800000000C40014908607047000088004042AB
:1006900010B502460C4BD86820F003001043D86018
:1006A000586820F4706040EA01205860074B1B68CE
:1006B00043B10123054C241D23600023034C883CD7
:1006C000C4F88C3010BD0000000002408800404299
:1006D00038B50020009000BF212000F02FF805461B
:1006E0000098401C00900098B0F5C06F01D2002D1A
:1006F000F2D0212000F022F808B1012400E000240B
:10070000204638BD0149086070470000880140421A
:100710000146044AD06820F0F00040EA0110D060A1
:1007200070470000000002400146034AD06820F4F0
:1007300040700843D06070470000024010B5014689
:1007400001F0E003202B02D1074B1A6801E0074BB0
:10075000DA6B01F01F040123A34013400BB1012009
:1007600000E0002010BD00000000024000800D40AD
:100770000D49896821F003010B4A9160012802D0DC
:1007800002280ED106E00849896841F00101064AB5
:10079000916007E00449896841F00301024A9160D1
:1007A00000E000BF00BF70470000024038B50020E5
:1007B000009000BF2220FFF7C1FF05460098401CB3
:1007C00000900098B0F5C06F01D2002DF2D0222029
:1007D000FFF7B4FF08B1012400E00024204638BD33
:1007E00029B1064AD2690243044BDA6104E0034AA4
:1007F000D2698243014BDA61704700000000024079
:1008000000B50748C06A40F000700549C86200F0B2
:100810000BF807200349086002204860086100BD0A
:100820000000024000000A400020034908604860C0
:10083000086148614862704700000A4008498860C2
:1008400000BF0749C96801F010010029F9D100BFB4
:100850000349C96801F001010029F9D0704700007F
:1008600000000A4030B5204CE46804F00204022C79
:1008700001D11E4800E01D481B4CE46804F001044F
:1008800004B140080146184CE46804F00404042C48
:1008900005D1154C6468C4F30324631C5943124CFE
:1008A000E468C4F3012424B1012C06D0022C13D136
:1008B0000DE00E4C0E4D2C6013E00B4CE468C4F3BD
:1008C0000314641CB1FBF4F2094C226009E04FF4FC
:1008D0000044074D2C6004E049F64044044D2C6070
:1008E00000BF00BF30BD00000000024000127A00CF
:1008F0000800002000B50D480D49C8610846C068D1
:100900000020C860084640680020486008468068AB
:100910000020886008460069002008610846406998
:1009200000204861FFF79EFF00BD00001000000896
:10093000000002400246104B586A104B9A4205D103
:1009400020F0FF00084340F0807012E00C4B9A4208
:1009500006D120F47F4040EA012040F0007008E01A
:10096000084B9A4205D120F47F0040EA014040F054
:100970008060014B58627047000002400000074051
:1009800000800740000008400A46C16812B141F0EB
:10099000010101E021F00101C160704730B50C8810
:1009A00004604C8844608C888460CC880D892C4419
:1009B0004D892C448D892C44CD896319C3604C8AA0
:1009C0000D8A04EB05148D8A2C44CD8A62190265C8
:1009D00030BD0021018041808180C1800181418141
:1009E0008181C181018241828182C182704700215F
:1009F000C160016041608160016241628162C162E7
:100A0000016341638163C163016641668166C166BA
:100A1000016141618161C161016741678167C167AE
:100A2000016441648164C164016541658165C1659A
:100A30007047000000B587B01548FFF7D8FF0321C5
:100A40001348FFF777FF01A8FFF7C3FF42F20F70CB
:100A5000ADF806004FF6FF70ADF8080001A90C488C
:100A6000FFF79CFF0F2000280BDB00F01F02012185
:100A70009140084A430942F82310BFF34F8FBFF358
:100A80006F8F00BF01210248FFF77EFF07B000BD56
:100A90000080074080E100E010B501464FF49C73F0
:100AA0000022002003E0D418A2B2441CA0B28A4263
:100AB000F9DB10BD70B505460E4600241CE055F864
:100AC0003400404305EBC401496805EBC402526899
:100AD00001FB020045F8340055F83400002806DB1D
:100AE00055F8340000F014FC45F8340002E0002012
:100AF00045F83400601CC4B20120B040A042DEDCE6
:100B000070BD000010B501241A48006840F01800BC
:100B1000184908600120FFF72BFEFFF747FE012868
:100B20001BD107210220FFF7B3FD0120FFF7AAFD2B
:100B300000BFFFF7CDFD0128FBD1FFF7C9FD01285C
:100B40000BD1FFF7DFFD0020FFF7E2FD4FF48070CF
:100B5000FFF7EAFDFFF786FE00240748806B40F0B0
:100B60000700054988630846806B40F038008863B9
:100B7000204610BD0080014000800D4010B50121CD
:100B80001020FFF72DFE01214805FFF729FE012166
:100B90000806FFF725FE01214806FFF721FE012187
:100BA000C806FFF71DFE01210805FFF719FE012108
:100BB0004804FFF715FE01218803FFF711FE01210C
:100BC000C803FFF70DFE01210804FFF709FE10BD61
:100BD00010B5FFF797FFFFF7D1FF10BD08B5002252
:100BE000009242F20F72426000220260026892B2EA
:100BF000009200BF0268BDF80030D21A92B28A4259
:100C0000F8DB08BD08B500220092092242600022EC
:100C10000260026892B2009200BF0268BDF8003024
:100C2000D21A92B28A42F8DB08BD2DE9F04F044691
:100C30000E469046701E012101FA00F700254FF084
:100C400000094FF0000A002004E054F830100D4471
:100C5000411CC8B2B842F8DB0120B04095FBF0F56A
:100C6000002009E054F83010491B54F83020521B82
:100C700001FB0299411CC8B2B842F3DB99FBF7FBB8
:100C8000584600F045FB824654F838000AEB4A010A
:100C9000884202DB0120BDE8F08F0020FBE7000066
:100CA0002DE9F04F89B00C4600270121A1401FFA21
:100CB00081F9A9F1010189B2069101261BE04C4698
:100CC00000BF641007EB040A06998A45F9DC611E2F
:100CD000394021448FB2B74200DC0AE030F83610C8
:100CE0000FFA81FC50F8371040F8361040F837C042
:100CF00000BF711C8EB206998E42E0DB01250921EE
:100D00000891C4E04FF6FF7B0BEA450BCDF81CB011
:100D10004FF00008AEE0DDF820B008FA0BFB1FFA38
:100D20008BFBCDF814B0DFF874E1DDF814B00BF5EF
:100D3000807B3EF91BB0CDF810B0DDF814B03EF862
:100D40001BB0CBF1000B0FFA8BFBCDF80CB0DDF82C
:100D500010B04FEA6B0BCDF810B0DDF80CB04FEAD5
:100D60006B0BCDF80CB042467DE002EB050B1FFA91
:100D70008BF350F833B0DDF810E00BFB0EF1891364
:100D800001F0010A0AEB610B0FFA8BFC00EBC30BBD
:100D9000DBF804B0DDF80CE00BFB0EF1891301F079
:100DA000010A0AEB610BACEB0B0B0FFA8BFC00EBAF
:100DB000C30BDBF804B0DDF810E00BFB0EF1891378
:100DC00001F0010A0AEB610B0FFA8BFBCDF800B0C2
:100DD00050F833B0DDF80CE00BFB0EF1891301F095
:100DE000010A0AEB610EDDF800B0F3440FFA8BFB49
:100DF000CDF800B030F832B00FFA8BFBCDF808B068
:100E000000EBC20BBBF804B00FFA8BFBCDF804B0BB
:100E1000DDF808B04FEA6B0BCDF808B0DDF804B090
:100E20004FEA6B0BCDF804B0DDF808B0E34440F8AE
:100E300032B0DDE900EBF34400EBC20ECEF804B0B3
:100E4000DDF808B0ABEB0C0B40F833B0DDE900EB9C
:100E5000ABEB0E0B00EBC30ECEF804B0DDF81CB00C
:100E600093441FFA8BF24A45FFF67FAF08F1010B5E
:100E70001FFA8BF8A845FFF64EAFDDF820B0ABF1B6
:100E8000010B1FFA8BFBCDF820B0079D00BF4D452D
:100E9000FFF638AF09B0BDE8F08F00003A13000844
:100EA0002DE9F04705460E4617464FF0000800248E
:100EB0001FE04FF0000907E0B84740441FFA80F8F0
:100EC00009F1010000F0FF09B9F1020FF4DB40F273
:100ED000E470C0EB6800801045F83400002005EB9A
:100EE000C4014860804614210548FFF78BFE601C52
:100EF00084B20120B040A042DBDCBDE8F0870000F6
:100F00000080074008B5FFF763FEFFF793FD00F090
:100F1000C7F9FFF781F9FFF773FCFFF701FA4FF606
:100F2000FF70FFF7E0F94FF49650FFF7B5FD384931
:100F300008806CE0374A06213748FFF7B1FF0621E9
:100F40003548FFF7ADFE06213348FFF7B3FD3048C3
:100F5000028806213048FFF768FE304908700024F7
:100F60004FE02E480078012808D1294800888442A3
:100F700004D14AF6FF202A49088002E000202849CF
:100F80000880284830F91400234951F83410884269
:100F900011DA23480088009004EB8400092505EB52
:100FA000400304EB840042001B4830F8340081B257
:100FB0000020FFF755F91B4830F91400164951F885
:100FC0003410884214DD4FF6FF7004EB84050926C7
:100FD00006EB450304EB84056A00124D009035F8DA
:100FE0001450A9B20C4D35F83450A8B2FFF738F9B7
:100FF000094830F8340000B20A4921F81400601C96
:10100000C4B2202CADDB32210748FFF7E7FD91E7A2
:1010100002000020290200084C01002004000020EA
:10102000060000200C0100200080074010B50022BF
:101030001021044800F05EF800221021014800F061
:101040004FF810BD00000C4070B50B460021012484
:1010500005E04D1CE9B24FF6FF7505EA44049C42D9
:10106000F7DB84684E000325B540AC43846032B1A1
:10107000012A0BD0022A10D0032A1CD114E0846864
:101080004E000025B5402C43846014E084684E0077
:101090000125B5402C4384600DE084684E00022594
:1010A000B5402C43846006E084684E000325B540BB
:1010B0002C43846000BF00BF70BD000010B540210C
:1010C000054800F0F5F88021034800F0F1F8802190
:1010D000024800F0EDF810BD00800A4000800C408E
:1010E000012A03D1C3680B43C36002E0C3688B438A
:1010F000C3607047012A03D143680B43436002E099
:1011000043688B4343607047012A03D143690B4313
:10111000436102E043698B4343617047012A04D174
:10112000436943EA0143436103E0436923EA01431E
:1011300043617047012A03D103690B43036102E055
:1011400003698B4303617047012A04D1036943EAB1
:101150000143036103E0036923EA0143036170472C
:1011600070B50B460021012405E04D1CE9B24FF695
:10117000FF7505EA44049C42F7DB84694E000325B1
:10118000B540AC43846132B1012A0BD0022A10D0A1
:10119000032A1CD114E084694E000025B5402C437D
:1011A000846114E084694E000125B5402C438461BC
:1011B0000DE084694E000225B5402C43846106E0B1
:1011C00084694E000325B5402C43846100BF00BFF5
:1011D00070BD000010B5022204213048FFF734FF33
:1011E000002204212D48FFF785FF012204212B480E
:1011F000FFF776FF002204212848FFF78FFF002227
:1012000004212648FFF780FF032204212348FFF72B
:10121000A7FF022240212148FFF716FF01224021AB
:101220001E48FFF767FF012240211C48FFF758FFC7
:10123000002240211948FFF771FF00224021174882
:10124000FFF762FF032240211448FFF789FF0222C3
:1012500020211248FFF7F8FE012220210F48FFF756
:1012600049FF012220210D48FFF73AFF00222021EB
:101270000A48FFF753FF002220210848FFF744FFE8
:10128000032220210548FFF76BFF0821034800F0E7
:101290000FF808210148FFF7E7F910BD00000C40E6
:1012A00010B5FFF70BFFFFF795FFFFF7BFFE10BD6F
:1012B00070B504460D46012229462046FFF71AFF65
:1012C000012229462046FFF70BFF0022294620462F
:1012D000FFF7BAFE002229462046FFF71FFF002233
:1012E00029462046FFF710FF022229462046FFF735
:1012F00037FF002229462046FFF726FF0022294615
:101300002046FFF717FF29462046FFF79FF970BDDB
:1013100002464FF08041002000E089109142FCD845
:1013200008E04318934203D8131A5A1A00EB4100FD
:10133000401089100029F4D170470000C9009201C3
:101340005B022403ED03B6047E0547061007D907A8
:10135000A1086A09320AFB0AC30B8B0C530D1B0E42
:10136000E30EAB0F721039110012C7128E13551411
:101370001B15E115A7166D173318F818BD19821A39
:10138000461B0B1CCF1C931D561E191FDC1F9F20D4
:1013900061212322E422A62367242725E725A72607
:1013A00067272628E528A329612A1E2BDB2B982CEA
:1013B000542D102ECC2E862F4130FB30B4316D329F
:1013C0002633DE3396344D350336B9366F3724383D
:1013D000D8388C393F3AF23AA43B563C073DB73DEA
:1013E000673E163FC53F73402041CD4179422543BA
:1013F000D0437A442345CC4574461C47C3476948CB
:101400000E49B349574AFA4A9D4B3F4CE04C804D38
:10141000204EBF4E5D4FFA4F97503351CE51685218
:1014200001539A533254C9545F55F45589561D5788
:10143000B0574258D3586359F359815A0F5B9C5B9C
:10144000285CB35C3D5DC65D4F5ED65E5D5FE25F6E
:101450006760EB606E61F0617162F1627063EE6310
:101460006B64E7646265DD655666CE664567BC679A
:101470003168A56819698B69FC696C6ADB6A4A6B1B
:10148000B76B236C8E6CF86C616DC96D306E956EA8
:10149000FA6E5E6FC06F22708270E17040719D7154
:1014A000F9715472AE7206735E73B5730A745E742A
:1014B000B17403755475A475F37540768D76D8763E
:1014C00022776B77B377F9773F788378C678087996
:1014D00049798979C779047A417A7C7AB57AEE7A42
:1014E000257B5C7B917BC47BF77B297C597C887C4A
:1014F000B67CE27C0E7D387D617D897DB07DD57DB9
:10150000F97D1C7E3E7E5E7E7E7E9C7EB97ED47E94
:10151000EF7E087F207F377F4C7F617F747F867FDF
:10152000967FA67FB47FC17FCD7FD77FE07FE87FA6
:10153000EF7FF57FF97FFC7FFE7FFF7FFE7FFC7FE3
:10154000F97FF57FEF7FE87FE07FD77FCD7FC17F99
:10155000B47FA67F967F867F747F617F4C7F377FC5
:10156000207F087FEF7ED47EB97E9C7E7E7E5E7E6D
:101570003E7E1C7EF97DD57DB07D897D617D387D87
:101580000E7DE27CB67C887C597C297CF77BC47B11
:10159000917B5C7B257BEE7AB57A7C7A417A047A02
:1015A000C779897949790879C67883783F78F97756
:1015B000B3776B772277D8768D764076F375A475FE
:1015C00054750375B1745E740A74B5735E730673F3
:1015D000AE725472F9719D714071E1708270227027
:1015E000C06F5E6FFA6E956E306EC96D616DF86C8E
:1015F0008E6C236CB76B4A6BDB6A6C6AFC698B6917
:101600001969A5683168BC674567CE665666DD65B1
:101610006265E7646B64EE637063F1627162F0614E
:101620006E61EB606760E25F5D5FD65E4F5EC65DD8
:101630003D5DB35C285C9C5B0F5B815AF359635939
:10164000D3584258B0571D578956F4555F55C95461
:1016500032549A5301536852CE5133519750FA4F36
:101660005D4FBF4E204E804DE04C3F4C9D4BFA4AA3
:10167000574AB3490E496948C3471C477446CC458D
:1016800023457A44D04325437942CD4120417340DC
:10169000C53F163F673EB73D073D563CA43BF23A77
:1016A0003F3A8C39D83824386F37B93603364D3540
:1016B0009634DE3326336D32B431FB304130862F21
:1016C000CC2E102E542D982CDB2B1E2B612AA329F7
:1016D000E52826286727A726E72527256724A623A8
:1016E000E422232261219F20DC1F191F561E931D17
:1016F000CF1C0B1C461B821ABD19F81833186D1726
:10170000A716E1151B1555148E13C71200123911B7
:101710007210AB0FE30E1B0E530D8B0CC30BFB0AA9
:10172000320A6A09A108D907100747067E05B604E0
:10173000ED0324035B029201C900000037FF6EFE37
:10174000A5FDDCFC13FC4AFB82FAB9F9F0F827F896
:101750005FF796F6CEF505F53DF475F3ADF2E5F1DC
:101760001DF155F08EEFC7EE00EE39ED72ECABEBEC
:10177000E5EA1FEA59E993E8CDE708E743E67EE5A5
:10178000BAE4F5E331E36DE2AAE1E7E024E061DFEA
:101790009FDEDDDD1CDD5ADC99DBD9DA19DA59D997
:1017A00099D8DAD71BD75DD69FD5E2D425D468D394
:1017B000ACD2F0D134D17AD0BFCF05CF4CCE93CDBF
:1017C000DACC22CC6ACBB3CAFDC947C991C8DCC701
:1017D00028C774C6C1C50EC55CC4AAC3F9C249C234
:1017E00099C1EAC03BC08DBFE0BE33BE87BDDBBC44
:1017F00030BC86BBDDBA34BA8CB9E4B83DB897B713
:10180000F2B64DB6A9B506B563B4C1B320B380B284
:10181000E0B141B1A3B006B069AFCDAE32AE98AD84
:10182000FFAC66ACCEAB37ABA1AA0CAA77A9E3A8F4
:1018300050A8BEA72DA79DA60DA67FA5F1A464A4C0
:10184000D8A34DA3C3A23AA2B1A12AA1A3A01EA0CE
:10185000999F159F929E109E8F9D0F9D909C129C0C
:10186000959B199B9E9A239AAA993299BB98449862
:10187000CF975B97E7967596049694952595B694C1
:101880004994DD93729308939F923792D0916B9114
:101890000691A2904090DE8F7E8F1F8FC08E638E48
:1018A000078EAC8D528DFA8CA28C4B8CF68BA28B52
:1018B0004F8BFD8AAC8A5C8A0D8AC089738928891E
:1018C000DE8895884D880788C1877D873A87F886A6
:1018D000B78677863986FC85BF8584854B851285DA
:1018E000DB84A4846F843C840984D783A7837883B2
:1018F0004A831E83F282C8829F82778250822B8223
:101900000782E481C281A2818281648147812C8126
:101910001181F880E080C980B4809F808C807A80BB
:101920006A805A804C803F803380298020801880D4
:1019300011800B8007800480028000005C19000881
:10194000000000200C000000FC00000868190008DE
:101950000C000020A409000018010008000000008D
:081960000000000000127A00F3
:040000050800015D91
:00000001FF
