:020000040800F2
:10000000680600205D01000865010008670100081E
:10001000690100086B0100086D0100080000000084
:100020000000000000000000000000006F01000858
:10003000710100080000000073010008750100084C
:100040007701000877010008770100080000000030
:100050000000000077010008770100087701000820
:100060007701000800000000770100087701000810
:100070007701000800000000770100087701000800
:1000800077010008770100080000000077010008F0
:1000900077010008000000000000000000000000E0
:1000A00000000000000000000000000077010008D0
:1000B0007701000877010008770100087701000840
:1000C00000F002F800F03AF80AA090E8000C824430
:1000D0008344AAF10107DA4501D100F02FF8AFF20D
:1000E000090EBAE80F0013F0010F18BFFB1A43F016
:1000F000010318470C0C00002C0C0000103A24BF20
:1001000078C878C1FAD8520724BF30C830C144BF7C
:1001100004680C60704700000023002400250026BE
:10012000103A28BF78C1FBD8520728BF30C148BF5A
:100130000B6070471FB51FBD10B510BD00F031F842
:100140001146FFF7F7FF00F06EFC00F04FF803B424
:10015000FFF7F2FF03BC00F057F8000009488047A2
:1001600009480047FEE7FEE7FEE7FEE7FEE7FEE799
:10017000FEE7FEE7FEE7FEE704480549054A064BB1
:100180007047000091070008C100000868000020C7
:10019000680600206802002068020020704770474F
:1001A0007047754600F02CF8AE4605006946534688
:1001B00020F00700854618B020B5FFF7DDFFBDE849
:1001C00020404FF000064FF000074FF000084FF0BE
:1001D000000B21F00701AC46ACE8C009ACE8C0094F
:1001E000ACE8C009ACE8C0098D46704710B50446BC
:1001F000AFF300802046BDE81040FFF7A8BF000025
:10020000004870470400002001491820ABBEFEE7FB
:10021000260002007047000010B59648006840F0C4
:100220000800944908608021934800F06BF9012090
:1002300000F026F96421914800F0E8FBCB2000F0A3
:100240001FF9392000F036F92C2000F033F9002096
:1002500000F030F9342000F02DF9022000F02AF9E6
:10026000CF2000F00DF9002000F024F9C12000F0AB
:1002700021F9302000F01EF9E82000F001F9852076
:1002800000F018F9002000F015F9782000F012F9BC
:10029000EA2000F0F5F8002000F00CF9002000F052
:1002A00009F9ED2000F0ECF8642000F003F90320D8
:1002B00000F000F9122000F0FDF8812000F0FAF8BB
:1002C000F72000F0DDF8202000F0F4F8C02000F066
:1002D000D7F8232000F0EEF8C12000F0D1F810206C
:1002E00000F0E8F8C52000F0CBF83E2000F0E2F87E
:1002F000282000F0DFF8C72000F0C2F8862000F0C8
:10030000D9F8362000F0BCF8482000F0D3F83A20A5
:1003100000F0B6F8552000F0CDF8B12000F0B0F8AC
:10032000002000F0C7F8182000F0C4F8B62000F054
:10033000A7F8082000F0BEF8822000F0BBF82720C4
:1003400000F0B8F8F22000F09BF8002000F0B2F8BE
:100350002A2000F095F8002000F0ACF8002000F012
:10036000A9F8002000F0A6F8EF2000F0A3F82B2059
:1003700000F086F8002000F09DF8002000F09AF8C8
:10038000012000F097F83F2000F094F8262000F0BC
:1003900077F8012000F08EF8E02000F071F80F20CF
:1003A00000F088F8312000F085F82B2000F082F86A
:1003B0000C2000F07FF80E2000F07CF8082000F000
:1003C00079F84E2000F076F8F12000F073F837202D
:1003D00000F070F8072000F06DF8102000F06AF8C7
:1003E000032000F067F80E2000F064F8092000F008
:1003F00061F8002000F05EF8E12000F041F80020F4
:1004000000F058F80E2000F055F8142000F052F8D3
:10041000032000F04FF8112000F04CF8072000F006
:1004200049F8312000F046F8C12000F043F8482098
:1004300000F040F8082000F03DF80F2000F03AF8F6
:100440000C2000F037F8312000F034F8362000F0AE
:1004500031F80F2000F02EF8112000F011F864217F
:10046000064800F0D3FA292000F00AF82C2000F00A
:1004700007F810BD00000C4000800C4000800740D1
:1004800010B504464021094800F02EF808480068DD
:1004900020F0080006490860204600F01DF90448D5
:1004A000006840F008000249086010BD00800A4062
:1004B00000000C4010B504464021094800F022F825
:1004C0000848006820F0080006490860204600F04F
:1004D00003F90448006840F008000249086010BDB4
:1004E00000800A4000000C400268054B984201D190
:1004F0001F2300E000230B439A4302607047000073
:1005000000000C400268054B984201D11F2300E017
:1005100000239A430A4302607047000000000C4029
:1005200001490860704700008800404210B502464B
:100530000C4BD86820F003001043D860586820F4B2
:10054000706040EA01205860074B1B6843B10123EB
:10055000054C241D23600023034C883CC4F88C30D8
:1005600010BD0000000002408800404238B5002065
:10057000009000BF212000F02FF805460098401C95
:1005800000900098B0F5C06F01D2002DF2D021206C
:1005900000F022F808B1012400E00024204638BD14
:1005A0000149086070470000880140420146044A42
:1005B000D06820F0F00040EA0110D06070470000E1
:1005C000000002400146034AD06820F4407008430E
:1005D000D06070470000024010B5014601F0E00312
:1005E000202B02D1074B1A6801E0074BDA6B01F0B0
:1005F0001F040123A34013400BB1012000E00020A1
:1006000010BD00000000024000800D400D498968C7
:1006100021F003010B4A9160012802D002280ED17B
:1006200006E00849896841F00101064A916007E047
:100630000449896841F00301024A916000E000BF6B
:1006400000BF70470000024038B50020009000BF96
:100650002220FFF7C1FF05460098401C009000983B
:10066000B0F5C06F01D2002DF2D02220FFF7B4FF09
:1006700008B1012400E00024204638BD29B1064A13
:10068000D2690243044BDA6104E0034AD26982432F
:10069000014BDA61704700000000024000B50748D6
:1006A000C06A40F000700549C86200F00BF80720EE
:1006B0000349086002204860086100BD0000024054
:1006C00000000A4000200349086048600861486152
:1006D0004862704700000A400849886000BF074927
:1006E000C96801F010010029F9D100BF0349C968A8
:1006F00001F001010029F9D07047000000000A4014
:1007000030B5204CE46804F00204022C01D11E48EC
:1007100000E01D481B4CE46804F0010404B14008EB
:100720000146184CE46804F00404042C05D1154C6F
:100730006468C4F30324631C5943124CE468C4F393
:10074000012424B1012C06D0022C13D10DE00E4C53
:100750000E4D2C6013E00B4CE468C4F30314641CCE
:10076000B1FBF4F2094C226009E04FF40044074D5C
:100770002C6004E049F64044044D2C6000BF00BFEB
:1007800030BD00000000024000127A00000000208E
:1007900000B50D480D49C8610846C0680020C86012
:1007A000084640680020486008468068002088604D
:1007B0000846006900200861084640690020486139
:1007C000FFF79EFF00BD000010000008000002407F
:1007D0000246104B586A104B9A4205D120F0FF0098
:1007E000084340F0807012E00C4B9A4206D120F48E
:1007F0007F4040EA012040F0007008E0084B9A4238
:1008000005D120F47F0040EA014040F08060014BB8
:100810005862704700000240000007400080074017
:10082000000008400A46C16812B141F0010101E030
:1008300021F00101C160704730B50C8804604C881C
:1008400044608C888460CC880D892C444D892C446C
:100850008D892C44CD896319C3604C8A0D8A04EBC1
:1008600005148D8A2C44CD8A6219026530BD0021A1
:10087000018041808180C180018141818181C1816C
:10088000018241828182C18270470021C160016082
:1008900041608160016241628162C16201634163C2
:1008A0008163C163016641668166C1660161416120
:1008B0008161C161016741678167C167016441640A
:1008C0008164C164016541658165C165704700004F
:1008D00000B587B01548FFF7D8FF03211348FFF78D
:1008E00077FF01A8FFF7C3FF42F20F70ADF80600D3
:1008F0004FF6FF70ADF8080001A90C48FFF79CFF08
:100900000F2000280BDB00F01F0201219140084A54
:10091000430942F82310BFF34F8FBFF36F8F00BF1F
:1009200001210248FFF77EFF07B000BD00800740AD
:1009300080E100E010B501241A48006840F018007A
:10094000184908600120FFF761FEFFF77DFE0128CE
:100950001BD107210220FFF7E9FD0120FFF7E0FD91
:1009600000BFFFF703FE0128FBD1FFF7FFFD0128C1
:100970000BD1FFF715FE0020FFF718FE4FF4807033
:10098000FFF720FEFFF7BCFE00240748806B40F015
:100990000700054988630846806B40F0380088638B
:1009A000204610BD0080014000800D4010B501219F
:1009B0001020FFF763FE01214805FFF75FFE0121CC
:1009C0000806FFF75BFE01214806FFF757FE0121ED
:1009D000C806FFF753FE01210805FFF74FFE01216E
:1009E0004804FFF74BFE01218803FFF747FE012172
:1009F000C803FFF743FE01210804FFF73FFE10BDC7
:100A000010B5FFF797FFFFF7D1FF10BD08B50268DB
:100A100092B2009200BF0268BDF80030D21A92B2C2
:100A20008A42F8DB08BDFFF7EBFFFFF751FF00F04C
:100A300031F9FFF733FEFFF7EFFB00BFFEE770B5BC
:100A40000B460021012405E04D1CE9B24FF6FF756D
:100A500005EA44049C42F7DB84684E000325B54058
:100A6000AC43846032B1012A0BD0022A10D0032A91
:100A70001CD114E084684E000025B5402C438460EE
:100A800014E084684E000125B5402C4384600DE0DD
:100A900084684E000225B5402C43846006E08468DB
:100AA0004E000325B5402C43846000BF00BF70BDDD
:100AB00010B54021054800F0F3F88021034800F00C
:100AC000EFF88021024800F0EBF810BD00800A40EA
:100AD00000800C40012A03D1C3680B43C36002E0CD
:100AE000C3688B43C3607047012A03D143680B433B
:100AF000436002E043688B4343607047012A03D19F
:100B000043690B43436102E043698B434361704790
:100B1000012A04D1436943EA0143436103E0436985
:100B200023EA014343617047012A03D103690B4360
:100B3000036102E003698B4303617047012A04D11A
:100B4000036943EA0143036103E0036923EA0143C4
:100B50000361704770B50B460021012405E04D1C70
:100B6000E9B24FF6FF7505EA44049C42F7DB84695D
:100B70004E000325B540AC43846132B1012A0BD04D
:100B8000022A10D0032A1CD114E084694E000025EB
:100B9000B5402C43846114E084694E000125B540C2
:100BA0002C4384610DE084694E000225B5402C433E
:100BB000846106E084694E000325B5402C438461BE
:100BC00000BF00BF70BD000010B5022204213048F4
:100BD000FFF735FF002204212D48FFF785FF012292
:100BE00004212B48FFF776FF002204212848FFF755
:100BF0008FFF002204212648FFF780FF03220421F3
:100C00002348FFF7A7FF022240212148FFF717FFE3
:100C1000012240211E48FFF767FF012240211C48A6
:100C2000FFF758FF002240211948FFF771FF00220B
:100C300040211748FFF762FF032240211448FFF7C5
:100C400089FF022220211248FFF7F9FE012220210C
:100C50000F48FFF749FF012220210D48FFF73AFF17
:100C6000002220210A48FFF753FF002220210848D4
:100C7000FFF744FF032220210548FFF76BFF0821FF
:100C8000034800F00DF808210148FFF73BFC10BDB8
:100C900000000C4010B5FFF70BFFFFF795FF10BDEC
:100CA00070B504460D46012229462046FFF71CFF79
:100CB000012229462046FFF70DFF00222946204643
:100CC000FFF7BDFE002229462046FFF721FF002244
:100CD00029462046FFF712FF022229462046FFF749
:100CE00039FF002229462046FFF728FF0022294627
:100CF0002046FFF719FF29462046FFF7F5FB70BD98
:100D0000200D00080000002004000000FC00000886
:100D1000240D0008040000206406000018010008EB
:040D200000127A0043
:040000050800015D91
:00000001FF
