:020000040800F2
:10000000700600205D010008650100086701000816
:10001000690100086B0100086D0100080000000084
:100020000000000000000000000000006F01000858
:10003000710100080000000073010008750100084C
:100040007701000877010008770100080000000030
:100050000000000077010008770100087701000820
:100060007701000800000000770100087701000810
:100070007701000800000000770100087701000800
:1000800077010008770100080000000077010008F0
:1000900077010008000000000000000000000000E0
:1000A00000000000000000000000000077010008D0
:1000B0007701000877010008770100087701000840
:1000C00000F002F800F03AF80AA090E8000C824430
:1000D0008344AAF10107DA4501D100F02FF8AFF20D
:1000E000090EBAE80F0013F0010F18BFFB1A43F016
:1000F00001031847BC0C0000DC0C0000103A24BFC0
:1001000078C878C1FAD8520724BF30C830C144BF7C
:1001100004680C60704700000023002400250026BE
:10012000103A28BF78C1FBD8520728BF30C148BF5A
:100130000B6070471FB51FBD10B510BD00F031F842
:100140001146FFF7F7FF00F0B9FC00F04FF803B4D9
:10015000FFF7F2FF03BC00F057F8000009488047A2
:1001600009480047FEE7FEE7FEE7FEE7FEE7FEE799
:10017000FEE7FEE7FEE7FEE704480549054A064BB1
:100180007047000025080008C1000008700000202A
:100190007006002070020020700200207047704737
:1001A0007047754600F02CF8AE4605006946534688
:1001B00020F00700854618B020B5FFF7DDFFBDE849
:1001C00020404FF000064FF000074FF000084FF0BE
:1001D000000B21F00701AC46ACE8C009ACE8C0094F
:1001E000ACE8C009ACE8C0098D46704710B50446BC
:1001F000AFF300802046BDE81040FFF7A8BF000025
:10020000004870470C00002001491820ABBEFEE7F3
:100210002600020070472DE9F04104462612E7B29D
:1002200040F23F13EF220021084600F081F92C2014
:1002300000F04AF9002506E0B0B200F05FF9B8B26C
:1002400000F05CF96D1CB5F5963FF5D3BDE8F08183
:1002500010B59948006840F008009749086080216F
:10026000964800F099F9012000F02EF96421944895
:1002700000F016FCCB2000F027F9392000F03EF901
:100280002C2000F03BF9002000F038F9342000F079
:1002900035F9022000F032F9CF2000F015F90020E6
:1002A00000F02CF9C12000F029F9302000F026F9E7
:1002B000E82000F009F9852000F020F9002000F086
:1002C0001DF9782000F01AF9EA2000F0FDF800206E
:1002D00000F014F9002000F011F9ED2000F0F4F81E
:1002E000642000F00BF9032000F008F9122000F060
:1002F00005F9812000F002F9F72000F0E5F8202050
:1003000000F0FCF8C02000F0DFF8232000F0F6F841
:10031000C12000F0D9F8102000F0F0F8C52000F05E
:10032000D3F83E2000F0EAF8282000F0E7F8C720D4
:1003300000F0CAF8862000F0E1F8362000F0C4F89A
:10034000482000F0DBF83A2000F0BEF8552000F01D
:10035000D5F8B12000F0B8F8002000F0CFF8182050
:1003600000F0CCF8B62000F0AFF8082000F0C6F896
:10037000822000F0C3F8272000F0C0F8F22000F03F
:10038000A3F8002000F0BAF82A2000F09DF8002021
:1003900000F0B4F8002000F0B1F8002000F0AEF852
:1003A000EF2000F0ABF82B2000F08EF8002000F0DA
:1003B000A5F8002000F0A2F8012000F09FF83F20EF
:1003C00000F09CF8262000F07FF8012000F096F85D
:1003D000E02000F079F80F2000F090F8312000F0D4
:1003E0008DF82B2000F08AF80C2000F087F80E2002
:1003F00000F084F8082000F081F84E2000F07EF82C
:10040000F12000F07BF8372000F078F8072000F0AA
:1004100075F8102000F072F8032000F06FF80E203D
:1004200000F06CF8092000F069F8002000F066F890
:10043000E12000F049F8002000F060F80E2000F004
:100440005DF8142000F05AF8032000F057F811204E
:1004500000F054F8072000F051F8312000F04EF879
:10046000C12000F04BF8482000F048F8082000F0C8
:1004700045F80F2000F042F80C2000F03FF8312042
:1004800000F03CF8362000F039F80F2000F036F884
:10049000112000F019F86421094800F001FB29201F
:1004A00000F012F82C2000F00FF80648006840F029
:1004B00080000449086010BD00000C4000800C4022
:1004C0000080074000800A4010B5044640210948DA
:1004D00000F054F80848006820F008000649086059
:1004E000204600F043F90448006840F00800024943
:1004F000086010BD00800A4000000C4010B50446A2
:100500004021094800F048F80848006820F0080039
:1005100006490860204600F029F90448006840F0C8
:1005200008000249086010BD00800A4000000C402D
:100530002DE9F04104460D4616461F462A20FFF7D6
:10054000C3FF2012FFF7DAFFE0B2FFF7D7FF301248
:10055000FFF7D4FFF0B2FFF7D1FF2B20FFF7B4FF76
:100560002812FFF7CBFFE8B2FFF7C8FF3812FFF7FA
:10057000C5FFF8B2FFF7C2FFBDE8F0810268054B86
:10058000984201D11F2300E000230B439A430260ED
:100590007047000000000C400268054B984201D1F2
:1005A0001F2300E000239A430A43026070470000C3
:1005B00000000C400149086070470000880040427C
:1005C00010B502460C4BD86820F003001043D860E9
:1005D000586820F4706040EA01205860074B1B689F
:1005E00043B10123054C241D23600023034C883CA8
:1005F000C4F88C3010BD000000000240880040426A
:1006000038B50020009000BF212000F02FF80546EB
:100610000098401C00900098B0F5C06F01D2002DEA
:10062000F2D0212000F022F808B1012400E00024DB
:10063000204638BD014908607047000088014042EB
:100640000146044AD06820F0F00040EA0110D06072
:1006500070470000000002400146034AD06820F4C1
:1006600040700843D06070470000024010B501465A
:1006700001F0E003202B02D1074B1A6801E0074B81
:10068000DA6B01F01F040123A34013400BB10120DA
:1006900000E0002010BD00000000024000800D407E
:1006A0000D49896821F003010B4A9160012802D0AD
:1006B00002280ED106E00849896841F00101064A86
:1006C000916007E00449896841F00301024A9160A2
:1006D00000E000BF00BF70470000024038B50020B6
:1006E000009000BF2220FFF7C1FF05460098401C84
:1006F00000900098B0F5C06F01D2002DF2D02220FA
:10070000FFF7B4FF08B1012400E00024204638BD03
:1007100029B1064AD2690243044BDA6104E0034A74
:10072000D2698243014BDA61704700000000024049
:1007300000B50748C06A40F000700549C86200F083
:100740000BF807200349086002204860086100BDDB
:100750000000024000000A40002003490860486091
:10076000086148614862704700000A400849886093
:1007700000BF0749C96801F010010029F9D100BF85
:100780000349C96801F001010029F9D07047000050
:1007900000000A4030B5204CE46804F00204022C4A
:1007A00001D11E4800E01D481B4CE46804F0010420
:1007B00004B140080146184CE46804F00404042C19
:1007C00005D1154C6468C4F30324631C5943124CCF
:1007D000E468C4F3012424B1012C06D0022C13D107
:1007E0000DE00E4C0E4D2C6013E00B4CE468C4F38E
:1007F0000314641CB1FBF4F2094C226009E04FF4CD
:100800000044074D2C6004E049F64044044D2C6040
:1008100000BF00BF30BD00000000024000127A009F
:100820000800002000B50D480D49C8610846C068A1
:100830000020C8600846406800204860084680687C
:100840000020886008460069002008610846406969
:1008500000204861FFF79EFF00BD00001000000867
:10086000000002400246104B586A104B9A4205D1D4
:1008700020F0FF00084340F0807012E00C4B9A42D9
:1008800006D120F47F4040EA012040F0007008E0EB
:10089000084B9A4205D120F47F0040EA014040F025
:1008A0008060014B58627047000002400000074022
:1008B00000800740000008400A46C16812B141F0BC
:1008C000010101E021F00101C160704730B50C88E1
:1008D00004604C8844608C888460CC880D892C44EA
:1008E0004D892C448D892C44CD896319C3604C8A71
:1008F0000D8A04EB05148D8A2C44CD8A6219026599
:1009000030BD0021018041808180C1800181418111
:100910008181C181018241828182C182704700212F
:10092000C160016041608160016241628162C162B7
:10093000016341638163C163016641668166C1668B
:10094000016141618161C161016741678167C1677F
:10095000016441648164C164016541658165C1656B
:100960007047000000B587B01548FFF7D8FF032196
:100970001348FFF777FF01A8FFF7C3FF42F20F709C
:10098000ADF806004FF6FF70ADF8080001A90C485D
:10099000FFF79CFF0F2000280BDB00F01F02012156
:1009A0009140084A430942F82310BFF34F8FBFF329
:1009B0006F8F00BF01210248FFF77EFF07B000BD27
:1009C0000080074080E100E010B501241A4800686B
:1009D00040F01800184908600120FFF761FEFFF79A
:1009E0007DFE01281BD107210220FFF7E9FD012030
:1009F000FFF7E0FD00BFFFF703FE0128FBD1FFF783
:100A0000FFFD01280BD1FFF715FE0020FFF718FEB0
:100A10004FF48070FFF720FEFFF7BCFE002407486C
:100A2000806B40F00700054988630846806B40F002
:100A300038008863204610BD0080014000800D40D2
:100A400010B501211020FFF763FE01214805FFF7D3
:100A50005FFE01210806FFF75BFE01214806FFF754
:100A600057FE0121C806FFF753FE01210805FFF7D5
:100A70004FFE01214804FFF74BFE01218803FFF7D9
:100A800047FE0121C803FFF743FE01210804FFF7D9
:100A90003FFE10BD10B5FFF797FFFFF7D1FF10BD68
:100AA00008B5026892B2009200BF0268BDF800303B
:100AB000D21A92B28A42F8DB08BD0000FFF7EAFFC3
:100AC000FFF750FF00F03EF9FFF732FEFFF7C0FBE3
:100AD0000548048807E004480088A04203D0024883
:100AE0000088FFF798FBF6E70400002070B50B467E
:100AF0000021012405E04D1CE9B24FF6FF7505EA1F
:100B000044049C42F7DB84684E000325B540AC43A7
:100B1000846032B1012A0BD0022A10D0032A1CD1E2
:100B200014E084684E000025B5402C43846014E036
:100B300084684E000125B5402C4384600DE0846834
:100B40004E000225B5402C43846006E084684E00C8
:100B50000325B5402C43846000BF00BF70BD00007A
:100B600010B54021054800F0F3F88021034800F05B
:100B7000EFF88021024800F0EBF810BD00800A4039
:100B800000800C40012A03D1C3680B43C36002E01C
:100B9000C3688B43C3607047012A03D143680B438A
:100BA000436002E043688B4343607047012A03D1EE
:100BB00043690B43436102E043698B4343617047E0
:100BC000012A04D1436943EA0143436103E04369D5
:100BD00023EA014343617047012A03D103690B43B0
:100BE000036102E003698B4303617047012A04D16A
:100BF000036943EA0143036103E0036923EA014314
:100C00000361704770B50B460021012405E04D1CBF
:100C1000E9B24FF6FF7505EA44049C42F7DB8469AC
:100C20004E000325B540AC43846132B1012A0BD09C
:100C3000022A10D0032A1CD114E084694E0000253A
:100C4000B5402C43846114E084694E000125B54011
:100C50002C4384610DE084694E000225B5402C438D
:100C6000846106E084694E000325B5402C4384610D
:100C700000BF00BF70BD000010B502220421304843
:100C8000FFF734FF002204212D48FFF785FF0122E2
:100C900004212B48FFF776FF002204212848FFF7A4
:100CA0008FFF002204212648FFF780FF0322042142
:100CB0002348FFF7A7FF022240212148FFF716FF34
:100CC000012240211E48FFF767FF012240211C48F6
:100CD000FFF758FF002240211948FFF771FF00225B
:100CE00040211748FFF762FF032240211448FFF715
:100CF00089FF022220211248FFF7F8FE012220215D
:100D00000F48FFF749FF012220210D48FFF73AFF66
:100D1000002220210A48FFF753FF00222021084823
:100D2000FFF744FF032220210548FFF76BFF08214E
:100D3000034800F00DF808210148FFF72DFC10BD15
:100D400000000C4010B5FFF70BFFFFF795FF10BD3B
:100D500070B504460D46012229462046FFF71CFFC8
:100D6000012229462046FFF70DFF00222946204692
:100D7000FFF7BCFE002229462046FFF721FF002294
:100D800029462046FFF712FF022229462046FFF798
:100D900039FF002229462046FFF728FF0022294676
:100DA0002046FFF719FF29462046FFF7E7FB70BDF5
:100DB000D00D0008000000200C000000FC0000081E
:100DC000DC0D00080C00002064060000180100087B
:0C0DD000000000000000000000127A008B
:040000050800015D91
:00000001FF
